{"abi":[{"type":"function","name":"gunduz","inputs":[],"outputs":[{"name":"","type":"bool","internalType":"bool"}],"stateMutability":"view"},{"type":"function","name":"joinLobby","inputs":[{"name":"_nickName","type":"string","internalType":"string"}],"outputs":[],"stateMutability":"payable"},{"type":"function","name":"playerCount","inputs":[],"outputs":[{"name":"","type":"uint256","internalType":"uint256"}],"stateMutability":"view"},{"type":"function","name":"players","inputs":[{"name":"","type":"uint256","internalType":"uint256"}],"outputs":[{"name":"nickname","type":"string","internalType":"string"},{"name":"userAddress","type":"address","internalType":"address"},{"name":"role","type":"uint8","internalType":"enum Lobby.Role"},{"name":"votes","type":"uint256","internalType":"uint256"}],"stateMutability":"view"},{"type":"function","name":"targets","inputs":[{"name":"","type":"uint256","internalType":"uint256"}],"outputs":[{"name":"","type":"string","internalType":"string"}],"stateMutability":"view"},{"type":"function","name":"timeCounter","inputs":[],"outputs":[{"name":"","type":"uint256","internalType":"uint256"}],"stateMutability":"view"},{"type":"function","name":"vote","inputs":[{"name":"target","type":"string","internalType":"string"}],"outputs":[],"stateMutability":"nonpayable"},{"type":"event","name":"Dispacth","inputs":[{"name":"suspect","type":"string","indexed":false,"internalType":"string"}],"anonymous":false},{"type":"event","name":"gameStarted","inputs":[],"anonymous":false},{"type":"event","name":"murdered","inputs":[{"name":"victim","type":"string","indexed":false,"internalType":"string"}],"anonymous":false},{"type":"event","name":"timeUpdate","inputs":[],"anonymous":false},{"type":"event","name":"vampireFound","inputs":[{"name":"vampireNickname","type":"string","indexed":false,"internalType":"string"}],"anonymous":false}],"bytecode":{"object":"0x60806040526005805460ff1916905534801561001a57600080fd5b50610b778061002a6000396000f3fe6080604052600436106100705760003560e01c806333ff64a51161004e57806333ff64a5146100f95780636bba294d1461010e578063f71d96cb14610124578063fc36e15b1461015457600080fd5b80630a39ce02146100755780631fd192b2146100ab578063302bcc57146100d5575b600080fd5b34801561008157600080fd5b506100956100903660046107a6565b610174565b6040516100a2919061080f565b60405180910390f35b3480156100b757600080fd5b506005546100c59060ff1681565b60405190151581526020016100a2565b3480156100e157600080fd5b506100eb60045481565b6040519081526020016100a2565b61010c61010736600461083f565b610220565b005b34801561011a57600080fd5b506100eb60015481565b34801561013057600080fd5b5061014461013f3660046107a6565b61046b565b6040516100a29493929190610906565b34801561016057600080fd5b5061010c61016f36600461083f565b610543565b6000818154811061018457600080fd5b90600052602060002001600091509050805461019f9061095a565b80601f01602080910402602001604051908101604052809291908181526020018280546101cb9061095a565b80156102185780601f106101ed57610100808354040283529160200191610218565b820191906000526020600020905b8154815290600101906020018083116101fb57829003601f168201915b505050505081565b34655af3107a40001461026f5760405162461bcd60e51b8152602060048201526012602482015271151c985b9cd858dd1a5bdb8819985a5b195960721b60448201526064015b60405180910390fd5b600a600454106102b65760405162461bcd60e51b8152602060048201526012602482015271546865206c6f6262792069732066756c6c2160701b6044820152606401610266565b6040805160808101825282815233602082015260018183015260006060820152905181906003906102e8908590610994565b908152604051908190036020019020815181906103059082610a01565b5060208201516001820180546001600160a01b039092166001600160a01b03198316811782556040850151926001600160a81b03191617600160a01b836002811115610353576103536108f0565b0217905550606091909101516002909101556004805490600061037583610ad7565b9190505550600454600a036104675742600060026103938184610af0565b61039e906001610b12565b815481106103ae576103ae610b2b565b60009182526020909120600160039092020101805460ff60a01b1916600160a01b8360028111156103e1576103e16108f0565b0217905550600060026103f48184610af0565b8154811061040457610404610b2b565b60009182526020909120600160039092020101805460ff60a01b1916600160a01b836002811115610437576104376108f0565b02179055506040517f5e123ce4613dfe236fe862290c891aef13c868dfaa513d48f245a68dc510b0b090600090a1505b5050565b6002818154811061047b57600080fd5b906000526020600020906003020160009150905080600001805461049e9061095a565b80601f01602080910402602001604051908101604052809291908181526020018280546104ca9061095a565b80156105175780601f106104ec57610100808354040283529160200191610517565b820191906000526020600020905b8154815290600101906020018083116104fa57829003601f168201915b50505050600183015460029093015491926001600160a01b03811692600160a01b90910460ff16915084565b600154610551906028610b12565b4211156105a05760405162461bcd60e51b815260206004820152601760248201527f54696d6520686173206e6f7420706173736564207965740000000000000000006044820152606401610266565b60055460ff1615156001146105ec5760405162461bcd60e51b81526020600482015260126024820152714974206973206e6f74206461792074696d6560701b6044820152606401610266565b60026003826040516105fe9190610994565b9081526040519081900360200190206001015460ff600160a01b90910416600281111561062d5761062d6108f0565b036106955760405162461bcd60e51b815260206004820152603260248201527f596f752063616e277420766f746520666f72206120706c617965722077686f206044820152716973206e6f7420696e207468652067616d6560701b6064820152608401610266565b6003816040516106a59190610994565b90815260405190819003602001902060020180549060006106c583610ad7565b9091555050600080546001810182559080527f290decd9548b62a8d60345a988386fc84ba6bc95484008f6362f93160ef3e563016107038282610a01565b50600654604051600390610718908490610994565b9081526020016040518091039020600201541115610764576003816040516107409190610994565b9081526040519081900360200190206002015460065560076107628282610a01565b505b426001556005805460ff19811660ff909116151790556040517fef5247a5efc1f0e1871a51b5876fd60ef81be6299a4200d37777f1424052906390600090a150565b6000602082840312156107b857600080fd5b5035919050565b60005b838110156107da5781810151838201526020016107c2565b50506000910152565b600081518084526107fb8160208601602086016107bf565b601f01601f19169290920160200192915050565b60208152600061082260208301846107e3565b9392505050565b634e487b7160e01b600052604160045260246000fd5b60006020828403121561085157600080fd5b813567ffffffffffffffff8082111561086957600080fd5b818401915084601f83011261087d57600080fd5b81358181111561088f5761088f610829565b604051601f8201601f19908116603f011681019083821181831017156108b7576108b7610829565b816040528281528760208487010111156108d057600080fd5b826020860160208301376000928101602001929092525095945050505050565b634e487b7160e01b600052602160045260246000fd5b60808152600061091960808301876107e3565b6001600160a01b038616602084015290506003841061094857634e487b7160e01b600052602160045260246000fd5b60408201939093526060015292915050565b600181811c9082168061096e57607f821691505b60208210810361098e57634e487b7160e01b600052602260045260246000fd5b50919050565b600082516109a68184602087016107bf565b9190910192915050565b601f8211156109fc576000816000526020600020601f850160051c810160208610156109d95750805b601f850160051c820191505b818110156109f8578281556001016109e5565b5050505b505050565b815167ffffffffffffffff811115610a1b57610a1b610829565b610a2f81610a29845461095a565b846109b0565b602080601f831160018114610a645760008415610a4c5750858301515b600019600386901b1c1916600185901b1785556109f8565b600085815260208120601f198616915b82811015610a9357888601518255948401946001909101908401610a74565b5085821015610ab15787850151600019600388901b60f8161c191681555b5050505050600190811b01905550565b634e487b7160e01b600052601160045260246000fd5b600060018201610ae957610ae9610ac1565b5060010190565b600082610b0d57634e487b7160e01b600052601260045260246000fd5b500690565b80820180821115610b2557610b25610ac1565b92915050565b634e487b7160e01b600052603260045260246000fdfea2646970667358221220842acce06e6b4e817b36a7098205f40d79a2a6f0df9a00784f694068efc28e5f64736f6c63430008180033","linkReferences":{}},"methodIdentifiers":{"gunduz()":"1fd192b2","joinLobby(string)":"33ff64a5","playerCount()":"302bcc57","players(uint256)":"f71d96cb","targets(uint256)":"0a39ce02","timeCounter()":"6bba294d","vote(string)":"fc36e15b"},"id":43}