{"abi":[{"type":"function","name":"createAccount","inputs":[{"name":"_nickname","type":"string","internalType":"string"},{"name":"_userID","type":"address","internalType":"address"}],"outputs":[],"stateMutability":"nonpayable"},{"type":"function","name":"createLobby","inputs":[],"outputs":[{"name":"","type":"string","internalType":"string"}],"stateMutability":"payable"},{"type":"function","name":"joinLobby","inputs":[],"outputs":[{"name":"","type":"string","internalType":"string"}],"stateMutability":"payable"},{"type":"function","name":"kill","inputs":[{"name":"lobbyIndex","type":"uint256","internalType":"uint256"},{"name":"target","type":"address","internalType":"address"}],"outputs":[],"stateMutability":"nonpayable"},{"type":"function","name":"lobbies","inputs":[{"name":"","type":"uint256","internalType":"uint256"}],"outputs":[{"name":"playerCount","type":"uint256","internalType":"uint256"}],"stateMutability":"view"},{"type":"function","name":"vote","inputs":[{"name":"lobbyIndex","type":"uint256","internalType":"uint256"},{"name":"target","type":"address","internalType":"address"}],"outputs":[],"stateMutability":"nonpayable"}],"bytecode":{"object":"0x608060405234801561001057600080fd5b50611182806100206000396000f3fe6080604052600436106100555760003560e01c806302d947ef1461005a578063470864041461007c5780636e8fb4c61461009a57806373b1e6d8146100c8578063b72a6e3f146100e8578063da9a770714610108575b600080fd5b34801561006657600080fd5b5061007a610075366004610e2e565b610110565b005b6100846106a3565b6040516100919190610e5a565b60405180910390f35b3480156100a657600080fd5b506100ba6100b5366004610ea8565b610849565b604051908152602001610091565b3480156100d457600080fd5b5061007a6100e3366004610ed7565b61086f565b3480156100f457600080fd5b5061007a610103366004610e2e565b610942565b610084610b2d565b600054821061015c5760405162461bcd60e51b8152602060048201526013602482015272092dcecc2d8d2c840d8dec4c4f240d2dcc8caf606b1b60448201526064015b60405180910390fd5b60005b6001548110156103ea57336001600160a01b03166001828154811061018657610186610f90565b60009182526020909120600160039092020101546001600160a01b0316036103d85760018082815481106101bc576101bc610f90565b906000526020600020906003020160010160149054906101000a900460ff1660028111156101ec576101ec610fa6565b146102395760405162461bcd60e51b815260206004820152601760248201527f4f6e6c792076696c6c61676572732063616e20766f74650000000000000000006044820152606401610153565b6000805b6000858154811061025057610250610f90565b9060005260206000209060020201600101805490508110156102e057836001600160a01b03166000868154811061028957610289610f90565b906000526020600020906002020160010182815481106102ab576102ab610f90565b6000918252602090912001546001600160a01b0316036102ce57600191506102e0565b806102d881610fd2565b91505061023d565b50806103385760405162461bcd60e51b815260206004820152602160248201527f54617267657420706c61796572206973206e6f7420696e20746865206c6f62626044820152607960f81b6064820152608401610153565b60005b6001548110156103d157836001600160a01b03166001828154811061036257610362610f90565b60009182526020909120600160039092020101546001600160a01b0316036103bf576001818154811061039757610397610f90565b6000918252602082206002600390920201018054916103b583610fd2565b91905055506103d1565b806103c981610fd2565b91505061033b565b50506103ea565b806103e281610fd2565b91505061015f565b50600082815481106103fe576103fe610f90565b906000526020600020906002020160000154600a0361069f57600080805b6000858154811061042f5761042f610f90565b90600052602060002090600202016001018054905081101561058b5760005b600154811015610578576001818154811061046b5761046b610f90565b6000918252602082206001600390920201015481546001600160a01b0390911691908890811061049d5761049d610f90565b906000526020600020906002020160010183815481106104bf576104bf610f90565b6000918252602090912001546001600160a01b0316036105665782600182815481106104ed576104ed610f90565b9060005260206000209060030201600201541115610561576001818154811061051857610518610f90565b60009182526020909120600160039092020181015481546001600160a01b0390911695508290811061054c5761054c610f90565b90600052602060002090600302016002015492505b610578565b8061057081610fd2565b91505061044e565b508061058381610fd2565b91505061041c565b5060005b60015481101561069b57826001600160a01b0316600182815481106105b6576105b6610f90565b60009182526020909120600160039092020101546001600160a01b031603610689576000600182815481106105ed576105ed610f90565b906000526020600020906003020160010160149054906101000a900460ff16600281111561061d5761061d610fa6565b036106745760026001828154811061063757610637610f90565b60009182526020909120600160039092020101805460ff60a01b1916600160a01b83600281111561066a5761066a610fa6565b021790555061069b565b60026001828154811061063757610637610f90565b8061069381610fd2565b91505061058f565b5050505b5050565b606034655af3107a4000146106ef5760405162461bcd60e51b8152602060048201526012602482015271151c985b9cd858dd1a5bdb8819985a5b195960721b6044820152606401610153565b6040513390600090655af3107a40009082818181858883f1935050505015801561071d573d6000803e3d6000fd5b50604080518082018252600181528151600080825260208281019094529282015260008054600181018255908052815160029091027f290decd9548b62a8d60345a988386fc84ba6bc95484008f6362f93160ef3e5638101918255602080840151805194955085946107b6937f290decd9548b62a8d60345a988386fc84ba6bc95484008f6362f93160ef3e56401929190910190610d98565b5050600080549091506107cb90600190610feb565b815481106107db576107db610f90565b6000918252602080832060016002909302018201805492830181558352918290200180546001600160a01b0319163317905560408051808201909152601a81527f4c6f6262792063726561746564207375636365737366756c6c790000000000009181019190915292915050565b6000818154811061085957600080fd5b6000918252602090912060029091020154905081565b604080516080810182528381526001600160a01b03831660208201526002918101919091526000606082018190526001805480820182559152815182916003027fb10e2d527612073b26eecdfd717e6a320cf44b4afac2b0732d9fcbe2b7fa0cf6019081906108de908261108c565b5060208201516001820180546001600160a01b039092166001600160a01b03198316811782556040850151926001600160a81b03191617600160a01b83600281111561092c5761092c610fa6565b0217905550606082015181600201555050505050565b60005482106109895760405162461bcd60e51b8152602060048201526013602482015272092dcecc2d8d2c840d8dec4c4f240d2dcc8caf606b1b6044820152606401610153565b60005b600154811015610a7757336001600160a01b0316600182815481106109b3576109b3610f90565b60009182526020909120600160039092020101546001600160a01b031603610a65576000600182815481106109ea576109ea610f90565b906000526020600020906003020160010160149054906101000a900460ff166002811115610a1a57610a1a610fa6565b14610a605760405162461bcd60e51b815260206004820152601660248201527513db9b1e481d985b5c1a5c995cc818d85b881ada5b1b60521b6044820152606401610153565b610a77565b80610a6f81610fd2565b91505061098c565b5060005b600154811015610b2857816001600160a01b031660018281548110610aa257610aa2610f90565b60009182526020909120600160039092020101546001600160a01b031603610b1657600260018281548110610ad957610ad9610f90565b60009182526020909120600160039092020101805460ff60a01b1916600160a01b836002811115610b0c57610b0c610fa6565b0217905550505050565b80610b2081610fd2565b915050610a7b565b505050565b606034655af3107a400014610b795760405162461bcd60e51b8152602060048201526012602482015271151c985b9cd858dd1a5bdb8819985a5b195960721b6044820152606401610153565b60005b600054811015610c585760005b600a811015610c4557336001600160a01b031660008381548110610baf57610baf610f90565b90600052602060002090600202016001018281548110610bd157610bd1610f90565b6000918252602090912001546001600160a01b031603610c335760405162461bcd60e51b815260206004820152601960248201527f506c6179657220616c726561647920696e2061206c6f626279000000000000006044820152606401610153565b80610c3d81610fd2565b915050610b89565b5080610c5081610fd2565b915050610b7c565b506000541580610c99575060008054610c7390600190610feb565b81548110610c8357610c83610f90565b906000526020600020906002020160000154600a145b15610cac57610ca66106a3565b50610d6a565b6040513390600090655af3107a40009082818181858883f19350505050158015610cda573d6000803e3d6000fd5b5060008054610ceb90600190610feb565b81548110610cfb57610cfb610f90565b6000918252602080832060016002909302018201805480840182559084529083200180546001600160a01b031916331790558154610d399190610feb565b81548110610d4957610d49610f90565b600091825260208220600290910201805491610d6483610fd2565b91905055505b506040805180820190915260138152724a6f696e6564207375636365737366756c6c7960681b602082015290565b828054828255906000526020600020908101928215610ded579160200282015b82811115610ded57825182546001600160a01b0319166001600160a01b03909116178255602090920191600190910190610db8565b50610df9929150610dfd565b5090565b5b80821115610df95760008155600101610dfe565b80356001600160a01b0381168114610e2957600080fd5b919050565b60008060408385031215610e4157600080fd5b82359150610e5160208401610e12565b90509250929050565b600060208083528351808285015260005b81811015610e8757858101830151858201604001528201610e6b565b506000604082860101526040601f19601f8301168501019250505092915050565b600060208284031215610eba57600080fd5b5035919050565b634e487b7160e01b600052604160045260246000fd5b60008060408385031215610eea57600080fd5b823567ffffffffffffffff80821115610f0257600080fd5b818501915085601f830112610f1657600080fd5b813581811115610f2857610f28610ec1565b604051601f8201601f19908116603f01168101908382118183101715610f5057610f50610ec1565b81604052828152886020848701011115610f6957600080fd5b826020860160208301376000602084830101528096505050505050610e5160208401610e12565b634e487b7160e01b600052603260045260246000fd5b634e487b7160e01b600052602160045260246000fd5b634e487b7160e01b600052601160045260246000fd5b600060018201610fe457610fe4610fbc565b5060010190565b81810381811115610ffe57610ffe610fbc565b92915050565b600181811c9082168061101857607f821691505b60208210810361103857634e487b7160e01b600052602260045260246000fd5b50919050565b601f821115610b2857600081815260208120601f850160051c810160208610156110655750805b601f850160051c820191505b8181101561108457828155600101611071565b505050505050565b815167ffffffffffffffff8111156110a6576110a6610ec1565b6110ba816110b48454611004565b8461103e565b602080601f8311600181146110ef57600084156110d75750858301515b600019600386901b1c1916600185901b178555611084565b600085815260208120601f198616915b8281101561111e578886015182559484019460019091019084016110ff565b508582101561113c5787850151600019600388901b60f8161c191681555b5050505050600190811b0190555056fea2646970667358221220389fd1ff6f2511e3399ca3af84ada9a8601dd70e0ea3761188eb197f0465c10564736f6c63430008130033","linkReferences":{}},"methodIdentifiers":{"createAccount(string,address)":"73b1e6d8","createLobby()":"47086404","joinLobby()":"da9a7707","kill(uint256,address)":"b72a6e3f","lobbies(uint256)":"6e8fb4c6","vote(uint256,address)":"02d947ef"},"id":26}