{"abi":[{"type":"constructor","inputs":[{"name":"_owner","type":"address","internalType":"address"},{"name":"_userName","type":"string","internalType":"string"}],"stateMutability":"nonpayable"},{"type":"function","name":"owner","inputs":[],"outputs":[{"name":"","type":"address","internalType":"address"}],"stateMutability":"view"},{"type":"function","name":"userName","inputs":[],"outputs":[{"name":"","type":"string","internalType":"string"}],"stateMutability":"view"},{"type":"function","name":"validateUserOp","inputs":[{"name":"","type":"tuple","internalType":"struct PackedUserOperation","components":[{"name":"sender","type":"address","internalType":"address"},{"name":"nonce","type":"uint256","internalType":"uint256"},{"name":"initCode","type":"bytes","internalType":"bytes"},{"name":"callData","type":"bytes","internalType":"bytes"},{"name":"accountGasLimits","type":"bytes32","internalType":"bytes32"},{"name":"preVerificationGas","type":"uint256","internalType":"uint256"},{"name":"gasFees","type":"bytes32","internalType":"bytes32"},{"name":"paymasterAndData","type":"bytes","internalType":"bytes"},{"name":"signature","type":"bytes","internalType":"bytes"}]},{"name":"","type":"bytes32","internalType":"bytes32"},{"name":"","type":"uint256","internalType":"uint256"}],"outputs":[{"name":"validationData","type":"uint256","internalType":"uint256"}],"stateMutability":"nonpayable"}],"bytecode":{"object":"0x60c0604052600660809081526522b6b7b530b760d11b60a0526001906100259082610121565b5034801561003257600080fd5b50604051610529380380610529833981016040819052610051916101e0565b600080546001600160a01b0319166001600160a01b03841617905560016100788282610121565b5050506102c9565b634e487b7160e01b600052604160045260246000fd5b600181811c908216806100aa57607f821691505b6020821081036100ca57634e487b7160e01b600052602260045260246000fd5b50919050565b601f82111561011c576000816000526020600020601f850160051c810160208610156100f95750805b601f850160051c820191505b8181101561011857828155600101610105565b5050505b505050565b81516001600160401b0381111561013a5761013a610080565b61014e816101488454610096565b846100d0565b602080601f831160018114610183576000841561016b5750858301515b600019600386901b1c1916600185901b178555610118565b600085815260208120601f198616915b828110156101b257888601518255948401946001909101908401610193565b50858210156101d05787850151600019600388901b60f8161c191681555b5050505050600190811b01905550565b600080604083850312156101f357600080fd5b82516001600160a01b038116811461020a57600080fd5b602084810151919350906001600160401b038082111561022957600080fd5b818601915086601f83011261023d57600080fd5b81518181111561024f5761024f610080565b604051601f8201601f19908116603f0116810190838211818310171561027757610277610080565b81604052828152898684870101111561028f57600080fd5b600093505b828410156102b15784840186015181850187015292850192610294565b60008684830101528096505050505050509250929050565b610251806102d86000396000f3fe608060405234801561001057600080fd5b50600436106100415760003560e01c806319822f7c1461004657806370019b35146100705780638da5cb5b14610085575b600080fd5b61005d61005436600461013e565b60009392505050565b6040519081526020015b60405180910390f35b6100786100b0565b6040516100679190610192565b600054610098906001600160a01b031681565b6040516001600160a01b039091168152602001610067565b600180546100bd906101e1565b80601f01602080910402602001604051908101604052809291908181526020018280546100e9906101e1565b80156101365780601f1061010b57610100808354040283529160200191610136565b820191906000526020600020905b81548152906001019060200180831161011957829003601f168201915b505050505081565b60008060006060848603121561015357600080fd5b833567ffffffffffffffff81111561016a57600080fd5b8401610120818703121561017d57600080fd5b95602085013595506040909401359392505050565b60006020808352835180602085015260005b818110156101c0578581018301518582016040015282016101a4565b506000604082860101526040601f19601f8301168501019250505092915050565b600181811c908216806101f557607f821691505b60208210810361021557634e487b7160e01b600052602260045260246000fd5b5091905056fea2646970667358221220b10aa2c8148f352a54658fb774a6bef4a595f66d976d11fa32bb915da50d6adc64736f6c63430008180033","linkReferences":{}},"methodIdentifiers":{"owner()":"8da5cb5b","userName()":"70019b35","validateUserOp((address,uint256,bytes,bytes,bytes32,uint256,bytes32,bytes,bytes),bytes32,uint256)":"19822f7c"},"id":41}