{"abi":[{"type":"constructor","inputs":[{"name":"_owner","type":"address","internalType":"address"},{"name":"_userName","type":"string","internalType":"string"}],"stateMutability":"nonpayable"},{"type":"function","name":"count","inputs":[],"outputs":[{"name":"","type":"uint256","internalType":"uint256"}],"stateMutability":"view"},{"type":"function","name":"increment","inputs":[],"outputs":[],"stateMutability":"nonpayable"},{"type":"function","name":"owner","inputs":[],"outputs":[{"name":"","type":"address","internalType":"address"}],"stateMutability":"view"},{"type":"function","name":"userName","inputs":[],"outputs":[{"name":"","type":"string","internalType":"string"}],"stateMutability":"view"},{"type":"function","name":"validateUserOp","inputs":[{"name":"","type":"tuple","internalType":"struct PackedUserOperation","components":[{"name":"sender","type":"address","internalType":"address"},{"name":"nonce","type":"uint256","internalType":"uint256"},{"name":"initCode","type":"bytes","internalType":"bytes"},{"name":"callData","type":"bytes","internalType":"bytes"},{"name":"accountGasLimits","type":"bytes32","internalType":"bytes32"},{"name":"preVerificationGas","type":"uint256","internalType":"uint256"},{"name":"gasFees","type":"bytes32","internalType":"bytes32"},{"name":"paymasterAndData","type":"bytes","internalType":"bytes"},{"name":"signature","type":"bytes","internalType":"bytes"}]},{"name":"","type":"bytes32","internalType":"bytes32"},{"name":"","type":"uint256","internalType":"uint256"}],"outputs":[{"name":"validationData","type":"uint256","internalType":"uint256"}],"stateMutability":"nonpayable"}],"bytecode":{"object":"0x608060405234801561001057600080fd5b5060405161056d38038061056d83398101604081905261002f91610074565b600180546001600160a01b0319166001600160a01b038416179055600261005682826101e8565b5050506102a7565b634e487b7160e01b600052604160045260246000fd5b6000806040838503121561008757600080fd5b82516001600160a01b038116811461009e57600080fd5b602084810151919350906001600160401b03808211156100bd57600080fd5b818601915086601f8301126100d157600080fd5b8151818111156100e3576100e361005e565b604051601f8201601f19908116603f0116810190838211818310171561010b5761010b61005e565b81604052828152898684870101111561012357600080fd5b600093505b828410156101455784840186015181850187015292850192610128565b60008684830101528096505050505050509250929050565b600181811c9082168061017157607f821691505b60208210810361019157634e487b7160e01b600052602260045260246000fd5b50919050565b601f8211156101e3576000816000526020600020601f850160051c810160208610156101c05750805b601f850160051c820191505b818110156101df578281556001016101cc565b5050505b505050565b81516001600160401b038111156102015761020161005e565b6102158161020f845461015d565b84610197565b602080601f83116001811461024a57600084156102325750858301515b600019600386901b1c1916600185901b1785556101df565b600085815260208120601f198616915b828110156102795788860151825594840194600190910190840161025a565b50858210156102975787850151600019600388901b60f8161c191681555b5050505050600190811b01905550565b6102b7806102b66000396000f3fe608060405234801561001057600080fd5b50600436106100575760003560e01c806306661abd1461005c57806319822f7c1461007857806370019b351461008f5780638da5cb5b146100a4578063d09de08a146100cf575b600080fd5b61006560005481565b6040519081526020015b60405180910390f35b61006561008636600461017d565b60009392505050565b6100976100d9565b60405161006f91906101d1565b6001546100b7906001600160a01b031681565b6040516001600160a01b03909116815260200161006f565b6100d7610167565b005b600280546100e690610220565b80601f016020809104026020016040519081016040528092919081815260200182805461011290610220565b801561015f5780601f106101345761010080835404028352916020019161015f565b820191906000526020600020905b81548152906001019060200180831161014257829003601f168201915b505050505081565b6000805490806101768361025a565b9190505550565b60008060006060848603121561019257600080fd5b833567ffffffffffffffff8111156101a957600080fd5b840161012081870312156101bc57600080fd5b95602085013595506040909401359392505050565b60006020808352835180602085015260005b818110156101ff578581018301518582016040015282016101e3565b506000604082860101526040601f19601f8301168501019250505092915050565b600181811c9082168061023457607f821691505b60208210810361025457634e487b7160e01b600052602260045260246000fd5b50919050565b60006001820161027a57634e487b7160e01b600052601160045260246000fd5b506001019056fea264697066735822122050d7fe6ebfc81f9d201927c5a1b433303fe8719dc30a37668d715e640de8ff2364736f6c63430008180033","linkReferences":{}},"methodIdentifiers":{"count()":"06661abd","increment()":"d09de08a","owner()":"8da5cb5b","userName()":"70019b35","validateUserOp((address,uint256,bytes,bytes,bytes32,uint256,bytes32,bytes,bytes),bytes32,uint256)":"19822f7c"},"id":18}