{"abi":[{"type":"constructor","inputs":[{"name":"_owner","type":"address","internalType":"address"},{"name":"_userName","type":"string","internalType":"string"}],"stateMutability":"nonpayable"},{"type":"function","name":"count","inputs":[],"outputs":[{"name":"","type":"uint256","internalType":"uint256"}],"stateMutability":"view"},{"type":"function","name":"fundMe","inputs":[],"outputs":[],"stateMutability":"payable"},{"type":"function","name":"increment","inputs":[],"outputs":[],"stateMutability":"nonpayable"},{"type":"function","name":"joinLobby","inputs":[{"name":"lobbyAddress","type":"address","internalType":"address"},{"name":"nickName","type":"string","internalType":"string"}],"outputs":[],"stateMutability":"payable"},{"type":"function","name":"kill","inputs":[{"name":"lobbyAddress","type":"address","internalType":"address"},{"name":"target","type":"string","internalType":"string"}],"outputs":[],"stateMutability":"nonpayable"},{"type":"function","name":"owner","inputs":[],"outputs":[{"name":"","type":"address","internalType":"address"}],"stateMutability":"view"},{"type":"function","name":"payout","inputs":[{"name":"lobbyAddress","type":"address","internalType":"address"}],"outputs":[],"stateMutability":"nonpayable"},{"type":"function","name":"userName","inputs":[],"outputs":[{"name":"","type":"string","internalType":"string"}],"stateMutability":"view"},{"type":"function","name":"validateUserOp","inputs":[{"name":"","type":"tuple","internalType":"struct PackedUserOperation","components":[{"name":"sender","type":"address","internalType":"address"},{"name":"nonce","type":"uint256","internalType":"uint256"},{"name":"initCode","type":"bytes","internalType":"bytes"},{"name":"callData","type":"bytes","internalType":"bytes"},{"name":"accountGasLimits","type":"bytes32","internalType":"bytes32"},{"name":"preVerificationGas","type":"uint256","internalType":"uint256"},{"name":"gasFees","type":"bytes32","internalType":"bytes32"},{"name":"paymasterAndData","type":"bytes","internalType":"bytes"},{"name":"signature","type":"bytes","internalType":"bytes"}]},{"name":"","type":"bytes32","internalType":"bytes32"},{"name":"","type":"uint256","internalType":"uint256"}],"outputs":[{"name":"validationData","type":"uint256","internalType":"uint256"}],"stateMutability":"nonpayable"},{"type":"function","name":"vote","inputs":[{"name":"lobbyAddress","type":"address","internalType":"address"},{"name":"target","type":"string","internalType":"string"}],"outputs":[],"stateMutability":"nonpayable"},{"type":"function","name":"withdraw","inputs":[],"outputs":[],"stateMutability":"nonpayable"}],"bytecode":{"object":"0x60806040523480156200001157600080fd5b50604051620009b0380380620009b083398101604081905262000034916200007c565b600180546001600160a01b0319166001600160a01b03841617905560026200005d828262000203565b505050620002cf565b634e487b7160e01b600052604160045260246000fd5b600080604083850312156200009057600080fd5b82516001600160a01b0381168114620000a857600080fd5b602084810151919350906001600160401b0380821115620000c857600080fd5b818601915086601f830112620000dd57600080fd5b815181811115620000f257620000f262000066565b604051601f8201601f19908116603f011681019083821181831017156200011d576200011d62000066565b8160405282815289868487010111156200013657600080fd5b600093505b828410156200015a57848401860151818501870152928501926200013b565b60008684830101528096505050505050509250929050565b600181811c908216806200018757607f821691505b602082108103620001a857634e487b7160e01b600052602260045260246000fd5b50919050565b601f821115620001fe576000816000526020600020601f850160051c81016020861015620001d95750805b601f850160051c820191505b81811015620001fa57828155600101620001e5565b5050505b505050565b81516001600160401b038111156200021f576200021f62000066565b620002378162000230845462000172565b84620001ae565b602080601f8311600181146200026f5760008415620002565750858301515b600019600386901b1c1916600185901b178555620001fa565b600085815260208120601f198616915b82811015620002a0578886015182559484019460019091019084016200027f565b5085821015620002bf5787850151600019600388901b60f8161c191681555b5050505050600190811b01905550565b6106d180620002df6000396000f3fe60806040526004361061009c5760003560e01c806370019b351161006457806370019b35146101455780638da5cb5b14610167578063afbf2b791461019f578063b6a324e0146100ea578063bb334faa146101b2578063d09de08a146101d257600080fd5b806306661abd146100a15780630b7e9c44146100ca57806319822f7c146100ec5780631bf533a4146101105780633ccfd60b14610130575b600080fd5b3480156100ad57600080fd5b506100b760005481565b6040519081526020015b60405180910390f35b3480156100d657600080fd5b506100ea6100e536600461049d565b6101e7565b005b3480156100f857600080fd5b506100b76101073660046104bf565b60009392505050565b34801561011c57600080fd5b506100ea61012b366004610529565b610243565b34801561013c57600080fd5b506100ea6102a8565b34801561015157600080fd5b5061015a610342565b6040516100c191906105eb565b34801561017357600080fd5b50600154610187906001600160a01b031681565b6040516001600160a01b0390911681526020016100c1565b6100ea6101ad366004610529565b6103d0565b3480156101be57600080fd5b506100ea6101cd366004610529565b61043d565b3480156101de57600080fd5b506100ea61046b565b6000819050806001600160a01b03166363bd1d4a6040518163ffffffff1660e01b8152600401600060405180830381600087803b15801561022757600080fd5b505af115801561023b573d6000803e3d6000fd5b505050505050565b60405163fc36e15b60e01b815282906001600160a01b0382169063fc36e15b906102719085906004016105eb565b600060405180830381600087803b15801561028b57600080fd5b505af115801561029f573d6000803e3d6000fd5b50505050505050565b6001546001600160a01b031633146103065760405162461bcd60e51b815260206004820152601760248201527f4f6e6c79206f776e65722063616e207769746864726177000000000000000000604482015260640160405180910390fd5b6001546040516001600160a01b03909116904780156108fc02916000818181858888f1935050505015801561033f573d6000803e3d6000fd5b50565b6002805461034f9061063a565b80601f016020809104026020016040519081016040528092919081815260200182805461037b9061063a565b80156103c85780601f1061039d576101008083540402835291602001916103c8565b820191906000526020600020905b8154815290600101906020018083116103ab57829003601f168201915b505050505081565b6040516333ff64a560e01b815282906001600160a01b038216906333ff64a590655af3107a4000906104069086906004016105eb565b6000604051808303818588803b15801561041f57600080fd5b505af1158015610433573d6000803e3d6000fd5b5050505050505050565b604051637551597b60e11b815282906001600160a01b0382169063eaa2b2f6906102719085906004016105eb565b60008054908061047a83610674565b9190505550565b80356001600160a01b038116811461049857600080fd5b919050565b6000602082840312156104af57600080fd5b6104b882610481565b9392505050565b6000806000606084860312156104d457600080fd5b833567ffffffffffffffff8111156104eb57600080fd5b840161012081870312156104fe57600080fd5b95602085013595506040909401359392505050565b634e487b7160e01b600052604160045260246000fd5b6000806040838503121561053c57600080fd5b61054583610481565b9150602083013567ffffffffffffffff8082111561056257600080fd5b818501915085601f83011261057657600080fd5b81358181111561058857610588610513565b604051601f8201601f19908116603f011681019083821181831017156105b0576105b0610513565b816040528281528860208487010111156105c957600080fd5b8260208601602083013760006020848301015280955050505050509250929050565b60006020808352835180602085015260005b81811015610619578581018301518582016040015282016105fd565b506000604082860101526040601f19601f8301168501019250505092915050565b600181811c9082168061064e57607f821691505b60208210810361066e57634e487b7160e01b600052602260045260246000fd5b50919050565b60006001820161069457634e487b7160e01b600052601160045260246000fd5b506001019056fea26469706673582212202fea2a2aa4e31b8ccab099c88d9bf744e4a5980bc27323229b8c903091c1616c64736f6c63430008180033","linkReferences":{}},"methodIdentifiers":{"count()":"06661abd","fundMe()":"b6a324e0","increment()":"d09de08a","joinLobby(address,string)":"afbf2b79","kill(address,string)":"bb334faa","owner()":"8da5cb5b","payout(address)":"0b7e9c44","userName()":"70019b35","validateUserOp((address,uint256,bytes,bytes,bytes32,uint256,bytes32,bytes,bytes),bytes32,uint256)":"19822f7c","vote(address,string)":"1bf533a4","withdraw()":"3ccfd60b"},"id":18}