{"abi":[{"type":"function","name":"gunduz","inputs":[],"outputs":[{"name":"","type":"bool","internalType":"bool"}],"stateMutability":"view"},{"type":"function","name":"joinLobby","inputs":[{"name":"_nickName","type":"string","internalType":"string"}],"outputs":[],"stateMutability":"payable"},{"type":"function","name":"playerCount","inputs":[],"outputs":[{"name":"","type":"uint256","internalType":"uint256"}],"stateMutability":"view"},{"type":"function","name":"playerMap","inputs":[{"name":"","type":"address","internalType":"address"}],"outputs":[{"name":"nickname","type":"string","internalType":"string"},{"name":"userID","type":"address","internalType":"address"},{"name":"role","type":"uint8","internalType":"enum Lobby.Role"},{"name":"votes","type":"uint256","internalType":"uint256"}],"stateMutability":"view"},{"type":"function","name":"players","inputs":[{"name":"","type":"uint256","internalType":"uint256"}],"outputs":[{"name":"nickname","type":"string","internalType":"string"},{"name":"userID","type":"address","internalType":"address"},{"name":"role","type":"uint8","internalType":"enum Lobby.Role"},{"name":"votes","type":"uint256","internalType":"uint256"}],"stateMutability":"view"},{"type":"function","name":"targets","inputs":[{"name":"","type":"uint256","internalType":"uint256"}],"outputs":[{"name":"","type":"address","internalType":"address"}],"stateMutability":"view"},{"type":"function","name":"timeCounter","inputs":[],"outputs":[{"name":"","type":"uint256","internalType":"uint256"}],"stateMutability":"view"},{"type":"function","name":"vote","inputs":[{"name":"target","type":"address","internalType":"address"}],"outputs":[],"stateMutability":"nonpayable"},{"type":"event","name":"gameStarted","inputs":[],"anonymous":false},{"type":"event","name":"murdered","inputs":[{"name":"victim","type":"address","indexed":false,"internalType":"address"}],"anonymous":false},{"type":"event","name":"timeUpdate","inputs":[],"anonymous":false},{"type":"event","name":"vampireFound","inputs":[{"name":"vampireAddress","type":"address","indexed":false,"internalType":"address"}],"anonymous":false}],"bytecode":{"object":"0x60806040526005805460ff1916905534801561001a57600080fd5b50610b008061002a6000396000f3fe60806040526004361061007b5760003560e01c80636bba294d1161004e5780636bba294d146101205780636dd7d8ea14610136578063d214c6ca14610156578063f71d96cb1461018657600080fd5b80630a39ce02146100805780631fd192b2146100bd578063302bcc57146100e757806333ff64a51461010b575b600080fd5b34801561008c57600080fd5b506100a061009b366004610744565b6101a6565b6040516001600160a01b0390911681526020015b60405180910390f35b3480156100c957600080fd5b506005546100d79060ff1681565b60405190151581526020016100b4565b3480156100f357600080fd5b506100fd60045481565b6040519081526020016100b4565b61011e610119366004610773565b6101d0565b005b34801561012c57600080fd5b506100fd60015481565b34801561014257600080fd5b5061011e610151366004610824565b610404565b34801561016257600080fd5b50610176610171366004610824565b610651565b6040516100b4949392919061088c565b34801561019257600080fd5b506101766101a1366004610744565b610711565b600081815481106101b657600080fd5b6000918252602090912001546001600160a01b0316905081565b34655af3107a40001461021f5760405162461bcd60e51b8152602060048201526012602482015271151c985b9cd858dd1a5bdb8819985a5b195960721b60448201526064015b60405180910390fd5b600a600454106102665760405162461bcd60e51b8152602060048201526012602482015271546865206c6f6262792069732066756c6c2160701b6044820152606401610216565b604080516080810182528281523360208083018290526001838501526000606084018190529182526003905291909120815182919081906102a7908261098a565b5060208201516001820180546001600160a01b039092166001600160a01b03198316811782556040850151926001600160a81b03191617600160a01b8360028111156102f5576102f5610854565b0217905550606091909101516002909101556004805490600061031783610a60565b9190505550600454600a036104005742600060026103358184610a79565b610340906001610a9b565b8154811061035057610350610ab4565b60009182526020909120600160039092020101805460ff60a01b1916600160a01b83600281111561038357610383610854565b021790555060006002828154811061039d5761039d610ab4565b60009182526020909120600160039092020101805460ff60a01b1916600160a01b8360028111156103d0576103d0610854565b02179055506040517f5e123ce4613dfe236fe862290c891aef13c868dfaa513d48f245a68dc510b0b090600090a1505b5050565b600154610412906028610a9b565b4211156104615760405162461bcd60e51b815260206004820152601760248201527f54696d6520686173206e6f7420706173736564207965740000000000000000006044820152606401610216565b60055460ff1615156001146104ad5760405162461bcd60e51b81526020600482015260126024820152714974206973206e6f74206461792074696d6560701b6044820152606401610216565b60026001600160a01b038216600090815260036020526040902060010154600160a01b900460ff1660028111156104e6576104e6610854565b0361054e5760405162461bcd60e51b815260206004820152603260248201527f596f752063616e277420766f746520666f72206120706c617965722077686f206044820152716973206e6f7420696e207468652067616d6560701b6064820152608401610216565b6001600160a01b038116600090815260036020526040812060020180549161057583610a60565b9091555050600080546001810182557f290decd9548b62a8d60345a988386fc84ba6bc95484008f6362f93160ef3e5630180546001600160a01b0319166001600160a01b0384169081179091556006549082526003602052604090912060020154111561060f576001600160a01b038116600081815260036020526040902060020154600655600780546001600160a01b03191690911790555b426001556005805460ff19811660ff909116151790556040517fef5247a5efc1f0e1871a51b5876fd60ef81be6299a4200d37777f1424052906390600090a150565b60036020526000908152604090208054819061066c90610901565b80601f016020809104026020016040519081016040528092919081815260200182805461069890610901565b80156106e55780601f106106ba576101008083540402835291602001916106e5565b820191906000526020600020905b8154815290600101906020018083116106c857829003601f168201915b50505050600183015460029093015491926001600160a01b03811692600160a01b90910460ff16915084565b6002818154811061072157600080fd5b906000526020600020906003020160009150905080600001805461066c90610901565b60006020828403121561075657600080fd5b5035919050565b634e487b7160e01b600052604160045260246000fd5b60006020828403121561078557600080fd5b813567ffffffffffffffff8082111561079d57600080fd5b818401915084601f8301126107b157600080fd5b8135818111156107c3576107c361075d565b604051601f8201601f19908116603f011681019083821181831017156107eb576107eb61075d565b8160405282815287602084870101111561080457600080fd5b826020860160208301376000928101602001929092525095945050505050565b60006020828403121561083657600080fd5b81356001600160a01b038116811461084d57600080fd5b9392505050565b634e487b7160e01b600052602160045260246000fd5b6003811061088857634e487b7160e01b600052602160045260246000fd5b9052565b608081526000855180608084015260005b818110156108ba57602081890181015160a086840101520161089d565b50600060a08285018101919091526001600160a01b0387166020850152601f909101601f191683010190506108f2604083018561086a565b82606083015295945050505050565b600181811c9082168061091557607f821691505b60208210810361093557634e487b7160e01b600052602260045260246000fd5b50919050565b601f82111561098557600081815260208120601f850160051c810160208610156109625750805b601f850160051c820191505b818110156109815782815560010161096e565b5050505b505050565b815167ffffffffffffffff8111156109a4576109a461075d565b6109b8816109b28454610901565b8461093b565b602080601f8311600181146109ed57600084156109d55750858301515b600019600386901b1c1916600185901b178555610981565b600085815260208120601f198616915b82811015610a1c578886015182559484019460019091019084016109fd565b5085821015610a3a5787850151600019600388901b60f8161c191681555b5050505050600190811b01905550565b634e487b7160e01b600052601160045260246000fd5b600060018201610a7257610a72610a4a565b5060010190565b600082610a9657634e487b7160e01b600052601260045260246000fd5b500690565b80820180821115610aae57610aae610a4a565b92915050565b634e487b7160e01b600052603260045260246000fdfea2646970667358221220334e398eab33321fee5c5dfbcec4964368af7851c792f0c94e2bfa022071c2c864736f6c63430008130033","linkReferences":{}},"methodIdentifiers":{"gunduz()":"1fd192b2","joinLobby(string)":"33ff64a5","playerCount()":"302bcc57","playerMap(address)":"d214c6ca","players(uint256)":"f71d96cb","targets(uint256)":"0a39ce02","timeCounter()":"6bba294d","vote(address)":"6dd7d8ea"},"id":28}