{"abi":[{"type":"function","name":"gunduz","inputs":[],"outputs":[{"name":"","type":"bool","internalType":"bool"}],"stateMutability":"view"},{"type":"function","name":"joinLobby","inputs":[{"name":"_nickName","type":"string","internalType":"string"}],"outputs":[],"stateMutability":"payable"},{"type":"function","name":"kill","inputs":[{"name":"target","type":"address","internalType":"address"}],"outputs":[],"stateMutability":"nonpayable"},{"type":"function","name":"playerMap","inputs":[{"name":"","type":"address","internalType":"address"}],"outputs":[{"name":"nickname","type":"string","internalType":"string"},{"name":"userID","type":"address","internalType":"address"},{"name":"role","type":"uint8","internalType":"enum Lobby.Role"},{"name":"votes","type":"uint256","internalType":"uint256"}],"stateMutability":"view"},{"type":"function","name":"players","inputs":[{"name":"","type":"uint256","internalType":"uint256"}],"outputs":[{"name":"nickname","type":"string","internalType":"string"},{"name":"userID","type":"address","internalType":"address"},{"name":"role","type":"uint8","internalType":"enum Lobby.Role"},{"name":"votes","type":"uint256","internalType":"uint256"}],"stateMutability":"view"},{"type":"function","name":"targets","inputs":[{"name":"","type":"uint256","internalType":"uint256"}],"outputs":[{"name":"","type":"address","internalType":"address"}],"stateMutability":"view"},{"type":"function","name":"timeCounter","inputs":[],"outputs":[{"name":"","type":"uint256","internalType":"uint256"}],"stateMutability":"view"},{"type":"function","name":"vote","inputs":[{"name":"target","type":"address","internalType":"address"}],"outputs":[],"stateMutability":"nonpayable"},{"type":"event","name":"timeUpdate","inputs":[],"anonymous":false},{"type":"event","name":"vampireFound","inputs":[{"name":"vampireAddress","type":"address","indexed":false,"internalType":"address"}],"anonymous":false}],"bytecode":{"object":"0x60806040526004805460ff1916905534801561001a57600080fd5b50610d7b8061002a6000396000f3fe60806040526004361061007b5760003560e01c80636dd7d8ea1161004e5780636dd7d8ea14610120578063cbf0b0c014610140578063d214c6ca14610160578063f71d96cb1461019057600080fd5b80630a39ce02146100805780631fd192b2146100bd57806333ff64a5146100e75780636bba294d146100fc575b600080fd5b34801561008c57600080fd5b506100a061009b36600461098f565b6101b0565b6040516001600160a01b0390911681526020015b60405180910390f35b3480156100c957600080fd5b506004546100d79060ff1681565b60405190151581526020016100b4565b6100fa6100f53660046109be565b6101da565b005b34801561010857600080fd5b5061011260015481565b6040519081526020016100b4565b34801561012c57600080fd5b506100fa61013b366004610a6f565b6102d2565b34801561014c57600080fd5b506100fa61015b366004610a6f565b6104ce565b34801561016c57600080fd5b5061018061017b366004610a6f565b61089c565b6040516100b49493929190610ad7565b34801561019c57600080fd5b506101806101ab36600461098f565b61095c565b600081815481106101c057600080fd5b6000918252602090912001546001600160a01b0316905081565b34655af3107a4000146102295760405162461bcd60e51b8152602060048201526012602482015271151c985b9cd858dd1a5bdb8819985a5b195960721b60448201526064015b60405180910390fd5b6040805160808101825282815233602080830182905260028385015260006060840181905291825260039052919091208151829190819061026a9082610bd5565b5060208201516001820180546001600160a01b039092166001600160a01b03198316811782556040850151926001600160a81b03191617600160a01b8360028111156102b8576102b8610a9f565b021790555060609190910151600290910155426001555050565b6001546102e0906028610cab565b4211156103295760405162461bcd60e51b8152602060048201526017602482015276151a5b59481a185cc81b9bdd081c185cdcd959081e595d604a1b6044820152606401610220565b60045460ff1615156001146103755760405162461bcd60e51b81526020600482015260126024820152714974206973206e6f74206461792074696d6560701b6044820152606401610220565b60026001600160a01b038216600090815260036020526040902060010154600160a01b900460ff1660028111156103ae576103ae610a9f565b036103cb5760405162461bcd60e51b815260040161022090610cc4565b6001600160a01b03811660009081526003602052604081206002018054916103f283610d16565b9091555050600080546001810182557f290decd9548b62a8d60345a988386fc84ba6bc95484008f6362f93160ef3e5630180546001600160a01b0319166001600160a01b0384169081179091556005549082526003602052604090912060020154111561048c576001600160a01b038116600081815260036020526040902060020154600555600680546001600160a01b03191690911790555b426001556004805460ff19811660ff909116151790556040517fef5247a5efc1f0e1871a51b5876fd60ef81be6299a4200d37777f1424052906390600090a150565b6001546104dc906028610cab565b4211156105255760405162461bcd60e51b8152602060048201526017602482015276151a5b59481a185cc81b9bdd081c185cdcd959081e595d604a1b6044820152606401610220565b60045460ff161561056f5760405162461bcd60e51b81526020600482015260146024820152734974206973206e6f74206e696768742074696d6560601b6044820152606401610220565b600033600090815260036020526040902060010154600160a01b900460ff16600281111561059f5761059f610a9f565b146105e55760405162461bcd60e51b81526020600482015260166024820152754f6e6c792076616d70797265732063616e20766f746560501b6044820152606401610220565b60026001600160a01b038216600090815260036020526040902060010154600160a01b900460ff16600281111561061e5761061e610a9f565b0361063b5760405162461bcd60e51b815260040161022090610cc4565b6001600160a01b038116600090815260036020526040812060020180549161066283610d16565b9091555050600080546001810182558180527f290decd9548b62a8d60345a988386fc84ba6bc95484008f6362f93160ef3e5630180546001600160a01b0319166001600160a01b0384161790555b60005481101561079d5760036000806106ca846001610cab565b815481106106da576106da610d2f565b60009182526020808320909101546001600160a01b031683528201929092526040018120600201548154909160039181908590811061071b5761071b610d2f565b60009182526020808320909101546001600160a01b03168352820192909252604001902060020154111561078b576003600080838154811061075f5761075f610d2f565b60009182526020808320909101546001600160a01b031683528201929092526040019020600201546005555b8061079581610d16565b9150506106b0565b5060005b60005481101561086b57600560000154600360008084815481106107c7576107c7610d2f565b60009182526020808320909101546001600160a01b03168352820192909252604001902060020154036108595760026003600080848154811061080c5761080c610d2f565b60009182526020808320909101546001600160a01b031683528201929092526040019020600101805460ff60a01b1916600160a01b83600281111561085357610853610a9f565b02179055505b8061086381610d16565b9150506107a1565b50426001556040517fef5247a5efc1f0e1871a51b5876fd60ef81be6299a4200d37777f1424052906390600090a150565b6003602052600090815260409020805481906108b790610b4c565b80601f01602080910402602001604051908101604052809291908181526020018280546108e390610b4c565b80156109305780601f1061090557610100808354040283529160200191610930565b820191906000526020600020905b81548152906001019060200180831161091357829003601f168201915b50505050600183015460029093015491926001600160a01b03811692600160a01b90910460ff16915084565b6002818154811061096c57600080fd5b90600052602060002090600302016000915090508060000180546108b790610b4c565b6000602082840312156109a157600080fd5b5035919050565b634e487b7160e01b600052604160045260246000fd5b6000602082840312156109d057600080fd5b813567ffffffffffffffff808211156109e857600080fd5b818401915084601f8301126109fc57600080fd5b813581811115610a0e57610a0e6109a8565b604051601f8201601f19908116603f01168101908382118183101715610a3657610a366109a8565b81604052828152876020848701011115610a4f57600080fd5b826020860160208301376000928101602001929092525095945050505050565b600060208284031215610a8157600080fd5b81356001600160a01b0381168114610a9857600080fd5b9392505050565b634e487b7160e01b600052602160045260246000fd5b60038110610ad357634e487b7160e01b600052602160045260246000fd5b9052565b608081526000855180608084015260005b81811015610b0557602081890181015160a0868401015201610ae8565b50600060a08285018101919091526001600160a01b0387166020850152601f909101601f19168301019050610b3d6040830185610ab5565b82606083015295945050505050565b600181811c90821680610b6057607f821691505b602082108103610b8057634e487b7160e01b600052602260045260246000fd5b50919050565b601f821115610bd057600081815260208120601f850160051c81016020861015610bad5750805b601f850160051c820191505b81811015610bcc57828155600101610bb9565b5050505b505050565b815167ffffffffffffffff811115610bef57610bef6109a8565b610c0381610bfd8454610b4c565b84610b86565b602080601f831160018114610c385760008415610c205750858301515b600019600386901b1c1916600185901b178555610bcc565b600085815260208120601f198616915b82811015610c6757888601518255948401946001909101908401610c48565b5085821015610c855787850151600019600388901b60f8161c191681555b5050505050600190811b01905550565b634e487b7160e01b600052601160045260246000fd5b80820180821115610cbe57610cbe610c95565b92915050565b60208082526032908201527f596f752063616e277420766f746520666f72206120706c617965722077686f206040820152716973206e6f7420696e207468652067616d6560701b606082015260800190565b600060018201610d2857610d28610c95565b5060010190565b634e487b7160e01b600052603260045260246000fdfea26469706673582212201b6da0e962e9635fc5c6a24524e11bb2adc72aea612edf790d2043d764611c8564736f6c63430008130033","linkReferences":{}},"methodIdentifiers":{"gunduz()":"1fd192b2","joinLobby(string)":"33ff64a5","kill(address)":"cbf0b0c0","playerMap(address)":"d214c6ca","players(uint256)":"f71d96cb","targets(uint256)":"0a39ce02","timeCounter()":"6bba294d","vote(address)":"6dd7d8ea"},"id":28}