{"abi":[{"type":"function","name":"count","inputs":[],"outputs":[{"name":"","type":"uint256","internalType":"uint256"}],"stateMutability":"view"},{"type":"function","name":"throwEv","inputs":[],"outputs":[],"stateMutability":"nonpayable"},{"type":"event","name":"ev","inputs":[],"anonymous":false}],"bytecode":{"object":"0x608060405234801561001057600080fd5b5060f28061001f6000396000f3fe6080604052348015600f57600080fd5b506004361060325760003560e01c806306661abd1460375780637509a2b4146051575b600080fd5b603f60005481565b60405190815260200160405180910390f35b60576059565b005b6000805490806066836096565b90915550506040517fff88694876cfdadcabe6c4b584b2eb766b5a8305999b794f8ff2fe35cb402ed590600090a1565b60006001820160b557634e487b7160e01b600052601160045260246000fd5b506001019056fea26469706673582212209cb96b700898b65c051a7b6c90ea9f00e0293aef1e22cc479d145215ef67f75764736f6c63430008180033","linkReferences":{}},"methodIdentifiers":{"count()":"06661abd","throwEv()":"7509a2b4"},"id":28}