{"abi":[{"type":"function","name":"createLobby","inputs":[],"outputs":[],"stateMutability":"nonpayable"},{"type":"function","name":"deployedLobbies","inputs":[{"name":"","type":"uint256","internalType":"uint256"}],"outputs":[{"name":"owner","type":"address","internalType":"address"},{"name":"lobbyAddress","type":"address","internalType":"address"},{"name":"gameFinished","type":"bool","internalType":"bool"}],"stateMutability":"view"},{"type":"function","name":"getDeployedLobbies","inputs":[],"outputs":[{"name":"","type":"tuple[]","internalType":"struct LobbyFactory.LobbyInfo[]","components":[{"name":"owner","type":"address","internalType":"address"},{"name":"lobbyAddress","type":"address","internalType":"address"},{"name":"gameFinished","type":"bool","internalType":"bool"}]}],"stateMutability":"view"},{"type":"function","name":"lobbyToIndex","inputs":[{"name":"","type":"address","internalType":"address"}],"outputs":[{"name":"","type":"uint256","internalType":"uint256"}],"stateMutability":"view"},{"type":"function","name":"ownerToLobby","inputs":[{"name":"","type":"address","internalType":"address"}],"outputs":[{"name":"","type":"address","internalType":"address"}],"stateMutability":"view"},{"type":"function","name":"updateLobbyInfo","inputs":[{"name":"_lobbyAddress","type":"address","internalType":"address"},{"name":"_gameFinished","type":"bool","internalType":"bool"}],"outputs":[],"stateMutability":"nonpayable"}],"bytecode":{"object":"0x608060405234801561001057600080fd5b50611d93806100206000396000f3fe608060405234801561001057600080fd5b50600436106100625760003560e01c806347086404146100675780635859a4bf146100715780637672c95c146100b15780639dbd6267146100df578063b7b003b9146100f4578063c044c41214610135575b600080fd5b61006f610148565b005b61008461007f366004610383565b610249565b604080516001600160a01b0394851681529390921660208401521515908201526060015b60405180910390f35b6100d16100bf3660046103b8565b60026020526000908152604090205481565b6040519081526020016100a8565b6100e761028f565b6040516100a891906103da565b61011d6101023660046103b8565b6000602081905290815260409020546001600160a01b031681565b6040516001600160a01b0390911681526020016100a8565b61006f610143366004610441565b61031c565b600060405161015690610376565b604051809103906000f080158015610172573d6000803e3d6000fd5b5060408051606081018252338082526001600160a01b0393841660208084018281526000858701818152600180548082018255908352965160029097027fb10e2d527612073b26eecdfd717e6a320cf44b4afac2b0732d9fcbe2b7fa0cf681018054988b166001600160a01b0319998a1617905592517fb10e2d527612073b26eecdfd717e6a320cf44b4afac2b0732d9fcbe2b7fa0cf7909301805491511515600160a01b026001600160a81b03199092169390991692909217919091179096559185529084905291909220805490921617905550565b6001818154811061025957600080fd5b6000918252602090912060029091020180546001909101546001600160a01b03918216925090811690600160a01b900460ff1683565b60606001805480602002602001604051908101604052809291908181526020016000905b82821015610313576000848152602090819020604080516060810182526002860290920180546001600160a01b03908116845260019182015490811684860152600160a01b900460ff1615159183019190915290835290920191016102b3565b50505050905090565b6001600160a01b03821660009081526002602052604090205460018054839290811061034a5761034a61047d565b906000526020600020906002020160010160146101000a81548160ff0219169083151502179055505050565b6118ca8061049483390190565b60006020828403121561039557600080fd5b5035919050565b80356001600160a01b03811681146103b357600080fd5b919050565b6000602082840312156103ca57600080fd5b6103d38261039c565b9392505050565b602080825282518282018190526000919060409081850190868401855b8281101561043457815180516001600160a01b039081168652878201511687860152850151151585850152606090930192908501906001016103f7565b5091979650505050505050565b6000806040838503121561045457600080fd5b61045d8361039c565b91506020830135801515811461047257600080fd5b809150509250929050565b634e487b7160e01b600052603260045260246000fdfe60806040526000805460ff19169055600980546001600160a81b03191673dc1707b63dc69f36a4a8434c33a5f9228106d1ad17905534801561004057600080fd5b5061187a806100506000396000f3fe6080604052600436106100dd5760003560e01c80638b9335641161007f578063eaa2b2f611610059578063eaa2b2f61461024c578063f0f324971461026c578063f71d96cb14610286578063fc36e15b146102a657600080fd5b80638b933564146101e8578063c6384071146101fe578063e96472a41461021457600080fd5b8063302bcc57116100bb578063302bcc571461017957806333ff64a51461019d5780636bba294d146101b257806379f4dddb146101c857600080fd5b80630a39ce02146100e25780631af25607146101185780631fd192b214610148575b600080fd5b3480156100ee57600080fd5b506101026100fd3660046113f3565b6102c6565b60405161010f919061145c565b60405180910390f35b34801561012457600080fd5b5061013861013336600461148c565b610372565b60405161010f9493929190611553565b34801561015457600080fd5b5060095461016990600160a01b900460ff1681565b604051901515815260200161010f565b34801561018557600080fd5b5061018f60065481565b60405190815260200161010f565b6101b06101ab36600461148c565b61043d565b005b3480156101be57600080fd5b5061018f60025481565b3480156101d457600080fd5b506101386101e33660046115a7565b6109b4565b3480156101f457600080fd5b5061018f60085481565b34801561020a57600080fd5b5061018f60075481565b34801561022057600080fd5b50600954610234906001600160a01b031681565b6040516001600160a01b03909116815260200161010f565b34801561025857600080fd5b506101b061026736600461148c565b6109cf565b34801561027857600080fd5b506000546101699060ff1681565b34801561029257600080fd5b506101386102a13660046113f3565b610eb4565b3480156102b257600080fd5b506101b06102c136600461148c565b610ee7565b600181815481106102d657600080fd5b9060005260206000200160009150905080546102f1906115d0565b80601f016020809104026020016040519081016040528092919081815260200182805461031d906115d0565b801561036a5780601f1061033f5761010080835404028352916020019161036a565b820191906000526020600020905b81548152906001019060200180831161034d57829003601f168201915b505050505081565b8051602081830181018051600482529282019190930120915280548190610398906115d0565b80601f01602080910402602001604051908101604052809291908181526020018280546103c4906115d0565b80156104115780601f106103e657610100808354040283529160200191610411565b820191906000526020600020905b8154815290600101906020018083116103f457829003601f168201915b50505050600183015460029093015491926001600160a01b03811692600160a01b90910460ff16915084565b34655af3107a40001461048c5760405162461bcd60e51b8152602060048201526012602482015271151c985b9cd858dd1a5bdb8819985a5b195960721b60448201526064015b60405180910390fd5b600a600654106104d35760405162461bcd60e51b8152602060048201526012602482015271546865206c6f6262792069732066756c6c2160701b6044820152606401610483565b604080516080810182528281523360208201526000918101600181526000602090910181905260038054600181018255918190528251929350839291027fc2575a0e9e593c00f959f8c92f12db2869c3395a3b0502d05e2516446f71f85b0190819061053f908261165b565b5060208201516001820180546001600160a01b039092166001600160a01b03198316811782556040850151926001600160a81b03191617600160a01b83600281111561058d5761058d61153d565b021790555060608201518160020155505080600482600001516040516105b3919061171b565b908152604051908190036020019020815181906105d0908261165b565b5060208201516001820180546001600160a01b039092166001600160a01b03198316811782556040850151926001600160a81b03191617600160a01b83600281111561061e5761061e61153d565b02179055506060919091015160029091015533600090815260056020526040902081518291908190610650908261165b565b5060208201516001820180546001600160a01b039092166001600160a01b03198316811782556040850151926001600160a81b03191617600160a01b83600281111561069e5761069e61153d565b021790555060609190910151600290910155600680549060006106c08361174d565b9190505550600654600a036109b0574260028190556000600460036106e6600985611766565b6106f1906001611788565b81548110610701576107016117a1565b906000526020600020906003020160000160405161071f91906117b7565b908152604051908190036020019020600101805460ff60a01b1916600160a01b8360028111156107515761075161153d565b0217905550600060046003610767600985611766565b81548110610777576107776117a1565b906000526020600020906003020160000160405161079591906117b7565b908152604051908190036020019020600101805460ff60a01b1916600160a01b8360028111156107c7576107c761153d565b0217905550600060058160036107de600986611766565b6107e9906001611788565b815481106107f9576107f96117a1565b6000918252602080832060016003909302018201546001600160a01b031684528301939093526040909101902001805460ff60a01b1916600160a01b8360028111156108475761084761153d565b02179055506000600581600361085e600986611766565b8154811061086e5761086e6117a1565b6000918252602080832060016003909302018201546001600160a01b031684528301939093526040909101902001805460ff60a01b1916600160a01b8360028111156108bc576108bc61153d565b0217905550600060036108d0600984611766565b6108db906001611788565b815481106108eb576108eb6117a1565b60009182526020909120600160039092020101805460ff60a01b1916600160a01b83600281111561091e5761091e61153d565b021790555060006003610932600984611766565b81548110610942576109426117a1565b60009182526020909120600160039092020101805460ff60a01b1916600160a01b8360028111156109755761097561153d565b021790555060086006819055600290556040517f5e123ce4613dfe236fe862290c891aef13c868dfaa513d48f245a68dc510b0b090600090a1505b5050565b600560205260009081526040902080548190610398906115d0565b6002546109de90610960611788565b421115610a275760405162461bcd60e51b8152602060048201526017602482015276151a5b59481a185cc81b9bdd081c185cdcd959081e595d604a1b6044820152606401610483565b600954600160a01b900460ff1615610a785760405162461bcd60e51b81526020600482015260146024820152734974206973206e6f74206e696768742074696d6560601b6044820152606401610483565b600033600090815260056020526040902060010154600160a01b900460ff166002811115610aa857610aa861153d565b14610aee5760405162461bcd60e51b815260206004820152601660248201527513db9b1e481d985b5c1a5c995cc818d85b881ada5b1b60521b6044820152606401610483565b6002600482604051610b00919061171b565b9081526040519081900360200190206001015460ff600160a01b909104166002811115610b2f57610b2f61153d565b03610b935760405162461bcd60e51b815260206004820152602e60248201527f596f752063616e2774206b696c6c206120706c617965722077686f206973206e60448201526d6f7420696e207468652067616d6560901b6064820152608401610483565b6000600482604051610ba5919061171b565b9081526040519081900360200190206001015460ff600160a01b909104166002811115610bd457610bd461153d565b03610c215760405162461bcd60e51b815260206004820152601860248201527f596f752063616e2774206b696c6c20612076616d7069726500000000000000006044820152606401610483565b600481604051610c31919061171b565b9081526040519081900360200190206002018054906000610c518361174d565b909155505060078054906000610c668361174d565b90915550506001805480820182556000919091527fb10e2d527612073b26eecdfd717e6a320cf44b4afac2b0732d9fcbe2b7fa0cf601610ca6828261165b565b50600a54604051600490610cbb90849061171b565b9081526020016040518091039020600201541115610d0757600481604051610ce3919061171b565b90815260405190819003602001902060020154600a55600b610d05828261165b565b505b60085460075403610eb15760005b600354811015610d6f576000600460038381548110610d3657610d366117a1565b9060005260206000209060030201600001604051610d5491906117b7565b90815260405190819003602001902060020155600101610d15565b50604051600490610d8290600b906117b7565b9081526040519081900360200190206000610d9d82826113a5565b506001810180546001600160a81b0319169055600060029091018190555b6003548110156109b05760068054906000610dd58361182d565b9190505550600654600003610e58576000805460ff19166001908117909155600954604051636022620960e11b815230600482015260248101929092526001600160a01b03169063c044c41290604401600060405180830381600087803b158015610e3f57600080fd5b505af1158015610e53573d6000803e3d6000fd5b505050505b60006007819055426002556009805460ff60a01b198116600160a01b9182900460ff16159091021790556040517fef5247a5efc1f0e1871a51b5876fd60ef81be6299a4200d37777f142405290639190a1600101610dbb565b50565b60038181548110610ec457600080fd5b9060005260206000209060030201600091509050806000018054610398906115d0565b600254610ef690610960611788565b421115610f3f5760405162461bcd60e51b8152602060048201526017602482015276151a5b59481a185cc81b9bdd081c185cdcd959081e595d604a1b6044820152606401610483565b600954600160a01b900460ff161515600114610f925760405162461bcd60e51b81526020600482015260126024820152714974206973206e6f74206461792074696d6560701b6044820152606401610483565b6002600482604051610fa4919061171b565b9081526040519081900360200190206001015460ff600160a01b909104166002811115610fd357610fd361153d565b0361103b5760405162461bcd60e51b815260206004820152603260248201527f596f752063616e277420766f746520666f72206120706c617965722077686f206044820152716973206e6f7420696e207468652067616d6560701b6064820152608401610483565b60048160405161104b919061171b565b908152604051908190036020019020600201805490600061106b8361174d565b9091555050600780549060006110808361174d565b90915550506001805480820182556000919091527fb10e2d527612073b26eecdfd717e6a320cf44b4afac2b0732d9fcbe2b7fa0cf6016110c0828261165b565b50600a546040516004906110d590849061171b565b9081526020016040518091039020600201541115611121576004816040516110fd919061171b565b90815260405190819003602001902060020154600a55600b61111f828261165b565b505b6008546006546111319190611788565b60075403610eb157600060405160049061114d90600b906117b7565b9081526040519081900360200190206001015460ff600160a01b90910416600281111561117c5761117c61153d565b0361121957600880549060006111918361182d565b9190505550600854600003611214576000805460ff19166001908117909155600954604051636022620960e11b815230600482015260248101929092526001600160a01b03169063c044c41290604401600060405180830381600087803b1580156111fb57600080fd5b505af115801561120f573d6000803e3d6000fd5b505050505b6112ac565b600680549060006112298361182d565b91905055506006546000036112ac576000805460ff19166001908117909155600954604051636022620960e11b815230600482015260248101929092526001600160a01b03169063c044c41290604401600060405180830381600087803b15801561129357600080fd5b505af11580156112a7573d6000803e3d6000fd5b505050505b60005b6003548110156113095760006004600383815481106112d0576112d06117a1565b90600052602060002090600302016000016040516112ee91906117b7565b908152604051908190036020019020600201556001016112af565b5060405160049061131c90600b906117b7565b908152604051908190036020019020600061133782826113a5565b506001810180546001600160a81b03191690556000600291820181905560078190554290915560098054600160a01b80820460ff16150260ff60a01b19919091161790556040517fef5247a5efc1f0e1871a51b5876fd60ef81be6299a4200d37777f142405290639190a150565b5080546113b1906115d0565b6000825580601f106113c1575050565b601f016020900490600052602060002090810190610eb191905b808211156113ef57600081556001016113db565b5090565b60006020828403121561140557600080fd5b5035919050565b60005b8381101561142757818101518382015260200161140f565b50506000910152565b6000815180845261144881602086016020860161140c565b601f01601f19169290920160200192915050565b60208152600061146f6020830184611430565b9392505050565b634e487b7160e01b600052604160045260246000fd5b60006020828403121561149e57600080fd5b813567ffffffffffffffff808211156114b657600080fd5b818401915084601f8301126114ca57600080fd5b8135818111156114dc576114dc611476565b604051601f8201601f19908116603f0116810190838211818310171561150457611504611476565b8160405282815287602084870101111561151d57600080fd5b826020860160208301376000928101602001929092525095945050505050565b634e487b7160e01b600052602160045260246000fd5b6080815260006115666080830187611430565b6001600160a01b038616602084015290506003841061159557634e487b7160e01b600052602160045260246000fd5b60408201939093526060015292915050565b6000602082840312156115b957600080fd5b81356001600160a01b038116811461146f57600080fd5b600181811c908216806115e457607f821691505b60208210810361160457634e487b7160e01b600052602260045260246000fd5b50919050565b601f821115611656576000816000526020600020601f850160051c810160208610156116335750805b601f850160051c820191505b818110156116525782815560010161163f565b5050505b505050565b815167ffffffffffffffff81111561167557611675611476565b6116898161168384546115d0565b8461160a565b602080601f8311600181146116be57600084156116a65750858301515b600019600386901b1c1916600185901b178555611652565b600085815260208120601f198616915b828110156116ed578886015182559484019460019091019084016116ce565b508582101561170b5787850151600019600388901b60f8161c191681555b5050505050600190811b01905550565b6000825161172d81846020870161140c565b9190910192915050565b634e487b7160e01b600052601160045260246000fd5b60006001820161175f5761175f611737565b5060010190565b60008261178357634e487b7160e01b600052601260045260246000fd5b500690565b8082018082111561179b5761179b611737565b92915050565b634e487b7160e01b600052603260045260246000fd5b60008083546117c5816115d0565b600182811680156117dd57600181146117f257611821565b60ff1984168752821515830287019450611821565b8760005260208060002060005b858110156118185781548a8201529084019082016117ff565b50505082870194505b50929695505050505050565b60008161183c5761183c611737565b50600019019056fea2646970667358221220e8c81da00ce221af0f17e62f1ba58c1a2979da1b65af0d675dcb90122f5a53ed64736f6c63430008180033a2646970667358221220afb748182e1262ead66b36e26c9e27eed8dcde060485dc44603cfbb25a6975ba64736f6c63430008180033","linkReferences":{}},"methodIdentifiers":{"createLobby()":"47086404","deployedLobbies(uint256)":"5859a4bf","getDeployedLobbies()":"9dbd6267","lobbyToIndex(address)":"7672c95c","ownerToLobby(address)":"b7b003b9","updateLobbyInfo(address,bool)":"c044c412"},"id":1}