{"abi":[{"type":"function","name":"createLobby","inputs":[],"outputs":[],"stateMutability":"nonpayable"},{"type":"function","name":"deployedLobbies","inputs":[{"name":"","type":"uint256","internalType":"uint256"}],"outputs":[{"name":"owner","type":"address","internalType":"address"},{"name":"lobbyAddress","type":"address","internalType":"address"},{"name":"gameFinished","type":"bool","internalType":"bool"}],"stateMutability":"view"},{"type":"function","name":"getDeployedLobbies","inputs":[],"outputs":[{"name":"","type":"tuple[]","internalType":"struct LobbyFactory.LobbyInfo[]","components":[{"name":"owner","type":"address","internalType":"address"},{"name":"lobbyAddress","type":"address","internalType":"address"},{"name":"gameFinished","type":"bool","internalType":"bool"}]}],"stateMutability":"view"},{"type":"function","name":"lobbyToIndex","inputs":[{"name":"","type":"address","internalType":"address"}],"outputs":[{"name":"","type":"uint256","internalType":"uint256"}],"stateMutability":"view"},{"type":"function","name":"ownerToLobby","inputs":[{"name":"","type":"address","internalType":"address"}],"outputs":[{"name":"","type":"address","internalType":"address"}],"stateMutability":"view"},{"type":"function","name":"updateLobbyInfo","inputs":[{"name":"_lobbyAddress","type":"address","internalType":"address"},{"name":"_gameFinished","type":"bool","internalType":"bool"}],"outputs":[],"stateMutability":"nonpayable"}],"bytecode":{"object":"0x608060405234801561001057600080fd5b506121eb806100206000396000f3fe608060405234801561001057600080fd5b50600436106100625760003560e01c806347086404146100675780635859a4bf146100715780637672c95c146100b15780639dbd6267146100df578063b7b003b9146100f4578063c044c41214610135575b600080fd5b61006f610148565b005b61008461007f366004610383565b610249565b604080516001600160a01b0394851681529390921660208401521515908201526060015b60405180910390f35b6100d16100bf3660046103b8565b60026020526000908152604090205481565b6040519081526020016100a8565b6100e761028f565b6040516100a891906103da565b61011d6101023660046103b8565b6000602081905290815260409020546001600160a01b031681565b6040516001600160a01b0390911681526020016100a8565b61006f610143366004610441565b61031c565b600060405161015690610376565b604051809103906000f080158015610172573d6000803e3d6000fd5b5060408051606081018252338082526001600160a01b0393841660208084018281526000858701818152600180548082018255908352965160029097027fb10e2d527612073b26eecdfd717e6a320cf44b4afac2b0732d9fcbe2b7fa0cf681018054988b166001600160a01b0319998a1617905592517fb10e2d527612073b26eecdfd717e6a320cf44b4afac2b0732d9fcbe2b7fa0cf7909301805491511515600160a01b026001600160a81b03199092169390991692909217919091179096559185529084905291909220805490921617905550565b6001818154811061025957600080fd5b6000918252602090912060029091020180546001909101546001600160a01b03918216925090811690600160a01b900460ff1683565b60606001805480602002602001604051908101604052809291908181526020016000905b82821015610313576000848152602090819020604080516060810182526002860290920180546001600160a01b03908116845260019182015490811684860152600160a01b900460ff1615159183019190915290835290920191016102b3565b50505050905090565b6001600160a01b03821660009081526002602052604090205460018054839290811061034a5761034a61047d565b906000526020600020906002020160010160146101000a81548160ff0219169083151502179055505050565b611d228061049483390190565b60006020828403121561039557600080fd5b5035919050565b80356001600160a01b03811681146103b357600080fd5b919050565b6000602082840312156103ca57600080fd5b6103d38261039c565b9392505050565b602080825282518282018190526000919060409081850190868401855b8281101561043457815180516001600160a01b039081168652878201511687860152850151151585850152606090930192908501906001016103f7565b5091979650505050505050565b6000806040838503121561045457600080fd5b61045d8361039c565b91506020830135801515811461047257600080fd5b809150509250929050565b634e487b7160e01b600052603260045260246000fdfe60806040526000805460ff199081169091556008600755600a8054909116905534801561002b57600080fd5b50611ce78061003b6000396000f3fe6080604052600436106100fe5760003560e01c806379f4dddb11610095578063c638407111610064578063c638407114610289578063eaa2b2f61461029f578063f0f32497146102bf578063f71d96cb146102d9578063fc36e15b146102f957600080fd5b806379f4dddb1461020e5780638b5b9ccc1461022e5780638b93356414610250578063b3a4dc2f1461026657600080fd5b806333ff64a5116100d157806333ff64a5146101b857806343afec8c146101cd57806363bd1d4a146101e35780636bba294d146101f857600080fd5b80630a39ce02146101035780631af25607146101395780631fd192b21461016a578063302bcc5714610194575b600080fd5b34801561010f57600080fd5b5061012361011e366004611761565b610319565b60405161013091906117ca565b60405180910390f35b34801561014557600080fd5b506101596101543660046117fa565b6103c5565b6040516101309594939291906118e3565b34801561017657600080fd5b50600a546101849060ff1681565b6040519015158152602001610130565b3480156101a057600080fd5b506101aa60065481565b604051908152602001610130565b6101cb6101c63660046117fa565b610499565b005b3480156101d957600080fd5b506101aa60075481565b3480156101ef57600080fd5b506101cb610a57565b34801561020457600080fd5b506101aa60025481565b34801561021a57600080fd5b5061015961022936600461192c565b610c5e565b34801561023a57600080fd5b50610243610c79565b6040516101309190611955565b34801561025c57600080fd5b506101aa60095481565b34801561027257600080fd5b5061027b610dd1565b604051610130929190611a00565b34801561029557600080fd5b506101aa60085481565b3480156102ab57600080fd5b506101cb6102ba3660046117fa565b610e68565b3480156102cb57600080fd5b506000546101849060ff1681565b3480156102e557600080fd5b506101596102f4366004611761565b6112e0565b34801561030557600080fd5b506101cb6103143660046117fa565b611313565b6001818154811061032957600080fd5b90600052602060002001600091509050805461034490611a21565b80601f016020809104026020016040519081016040528092919081815260200182805461037090611a21565b80156103bd5780601f10610392576101008083540402835291602001916103bd565b820191906000526020600020905b8154815290600101906020018083116103a057829003601f168201915b505050505081565b80516020818301810180516004825292820191909301209152805481906103eb90611a21565b80601f016020809104026020016040519081016040528092919081815260200182805461041790611a21565b80156104645780601f1061043957610100808354040283529160200191610464565b820191906000526020600020905b81548152906001019060200180831161044757829003601f168201915b5050506001840154600285015460039095015493946001600160a01b0382169460ff600160a01b909304831694509092501685565b34655af3107a4000146104e85760405162461bcd60e51b8152602060048201526012602482015271151c985b9cd858dd1a5bdb8819985a5b195960721b60448201526064015b60405180910390fd5b600a6006541061052f5760405162461bcd60e51b8152602060048201526012602482015271546865206c6f6262792069732066756c6c2160701b60448201526064016104df565b6040805160a08101825282815233602082015260009181016001815260006020820181905260409091018190526003805460018101825591528151919250829160049091027fc2575a0e9e593c00f959f8c92f12db2869c3395a3b0502d05e2516446f71f85b019081906105a39082611aac565b5060208201516001820180546001600160a01b039092166001600160a01b03198316811782556040850151926001600160a81b03191617600160a01b8360028111156105f1576105f16118ab565b0217905550606082015160028201556080909101516003909101805460ff19169115159190911790558051604051829160049161062e9190611b6c565b9081526040519081900360200190208151819061064b9082611aac565b5060208201516001820180546001600160a01b039092166001600160a01b03198316811782556040850151926001600160a81b03191617600160a01b836002811115610699576106996118ab565b0217905550606082015160028201556080909101516003909101805460ff1916911515919091179055336000908152600560205260409020815182919081906106e29082611aac565b5060208201516001820180546001600160a01b039092166001600160a01b03198316811782556040850151926001600160a81b03191617600160a01b836002811115610730576107306118ab565b0217905550606082015160028201556080909101516003909101805460ff19169115159190911790556006805490600061076983611b9e565b9190505550600654600a03610a535742600281905560006004600361078f600985611bcd565b61079a906001611be1565b815481106107aa576107aa611bfa565b90600052602060002090600402016000016040516107c89190611c10565b908152604051908190036020019020600101805460ff60a01b1916600160a01b8360028111156107fa576107fa6118ab565b0217905550600060046003610810600985611bcd565b8154811061082057610820611bfa565b906000526020600020906004020160000160405161083e9190611c10565b908152604051908190036020019020600101805460ff60a01b1916600160a01b836002811115610870576108706118ab565b021790555060006005816003610887600986611bcd565b610892906001611be1565b815481106108a2576108a2611bfa565b6000918252602080832060016004909302018201546001600160a01b031684528301939093526040909101902001805460ff60a01b1916600160a01b8360028111156108f0576108f06118ab565b021790555060006005816003610907600986611bcd565b8154811061091757610917611bfa565b6000918252602080832060016004909302018201546001600160a01b031684528301939093526040909101902001805460ff60a01b1916600160a01b836002811115610965576109656118ab565b021790555060006003610979600984611bcd565b610984906001611be1565b8154811061099457610994611bfa565b60009182526020909120600160049092020101805460ff60a01b1916600160a01b8360028111156109c7576109c76118ab565b0217905550600060036109db600984611bcd565b815481106109eb576109eb611bfa565b60009182526020909120600160049092020101805460ff60a01b1916600160a01b836002811115610a1e57610a1e6118ab565b021790555060026009556040517f5e123ce4613dfe236fe862290c891aef13c868dfaa513d48f245a68dc510b0b090600090a1505b5050565b60005460ff16610aa95760405162461bcd60e51b815260206004820152601c60248201527f5468652067616d65206973207374696c6c20676f696e67206f6e21210000000060448201526064016104df565b3360009081526005602052604090206003015460ff1615610b055760405162461bcd60e51b8152602060048201526016602482015275596f752061726520616c72656164792070616964212160501b60448201526064016104df565b600754600003610bda57600033600090815260056020526040902060010154600160a01b900460ff166002811115610b3f57610b3f6118ab565b14610b835760405162461bcd60e51b8152602060048201526014602482015273596f7520617265206e6f742076616d706972652160601b60448201526064016104df565b336108fc610b92600247611c86565b6040518115909202916000818181858888f19350505050158015610bba573d6000803e3d6000fd5b50336000908152600560205260409020600301805460ff19166001179055565b600133600090815260056020526040902060010154600160a01b900460ff166002811115610c0a57610c0a6118ab565b14610c4f5760405162461bcd60e51b8152602060048201526015602482015274596f7520617265206e6f742076696c6c616765722160581b60448201526064016104df565b336108fc610b92600847611c86565b6005602052600090815260409020805481906103eb90611a21565b60606003805480602002602001604051908101604052809291908181526020016000905b82821015610dc857838290600052602060002090600402016040518060a0016040529081600082018054610cd090611a21565b80601f0160208091040260200160405190810160405280929190818152602001828054610cfc90611a21565b8015610d495780601f10610d1e57610100808354040283529160200191610d49565b820191906000526020600020905b815481529060010190602001808311610d2c57829003601f168201915b505050918352505060018201546001600160a01b0381166020830152604090910190600160a01b900460ff166002811115610d8657610d866118ab565b6002811115610d9757610d976118ab565b8152600282015460208083019190915260039092015460ff1615156040909101529082526001929092019101610c9d565b50505050905090565b600b8054600c8054919291610de590611a21565b80601f0160208091040260200160405190810160405280929190818152602001828054610e1190611a21565b8015610e5e5780601f10610e3357610100808354040283529160200191610e5e565b820191906000526020600020905b815481529060010190602001808311610e4157829003601f168201915b5050505050905082565b600254610e7790610960611be1565b421115610ec05760405162461bcd60e51b8152602060048201526017602482015276151a5b59481a185cc81b9bdd081c185cdcd959081e595d604a1b60448201526064016104df565b600a5460ff1615610f0a5760405162461bcd60e51b81526020600482015260146024820152734974206973206e6f74206e696768742074696d6560601b60448201526064016104df565b600033600090815260056020526040902060010154600160a01b900460ff166002811115610f3a57610f3a6118ab565b14610f805760405162461bcd60e51b815260206004820152601660248201527513db9b1e481d985b5c1a5c995cc818d85b881ada5b1b60521b60448201526064016104df565b6002600482604051610f929190611b6c565b9081526040519081900360200190206001015460ff600160a01b909104166002811115610fc157610fc16118ab565b036110255760405162461bcd60e51b815260206004820152602e60248201527f596f752063616e2774206b696c6c206120706c617965722077686f206973206e60448201526d6f7420696e207468652067616d6560901b60648201526084016104df565b60006004826040516110379190611b6c565b9081526040519081900360200190206001015460ff600160a01b909104166002811115611066576110666118ab565b036110b35760405162461bcd60e51b815260206004820152601860248201527f596f752063616e2774206b696c6c20612076616d70697265000000000000000060448201526064016104df565b6004816040516110c39190611b6c565b90815260405190819003602001902060020180549060006110e383611b9e565b9091555050600880549060006110f883611b9e565b90915550506001805480820182556000919091527fb10e2d527612073b26eecdfd717e6a320cf44b4afac2b0732d9fcbe2b7fa0cf6016111388282611aac565b50600b5460405160049061114d908490611b6c565b9081526020016040518091039020600201541115611199576004816040516111759190611b6c565b90815260405190819003602001902060020154600b55600c6111978282611aac565b505b600954600854036112dd5760005b6003548110156112015760006004600383815481106111c8576111c8611bfa565b90600052602060002090600402016000016040516111e69190611c10565b908152604051908190036020019020600201556001016111a7565b5060405160049061121490600c90611c10565b908152604051908190036020019020600061122f8282611713565b506001810180546001600160a81b03191690556000600282018190556003909101805460ff19169055600780549161126683611c9a565b9190505550600754600003611283576000805460ff191660011790555b60006008819055600b8181559061129b600c82611713565b505042600255600a805460ff19811660ff909116151790556040517fef5247a5efc1f0e1871a51b5876fd60ef81be6299a4200d37777f1424052906390600090a15b50565b600381815481106112f057600080fd5b90600052602060002090600402016000915090508060000180546103eb90611a21565b60025461132290610960611be1565b42111561136b5760405162461bcd60e51b8152602060048201526017602482015276151a5b59481a185cc81b9bdd081c185cdcd959081e595d604a1b60448201526064016104df565b600a5460ff1615156001146113b75760405162461bcd60e51b81526020600482015260126024820152714974206973206e6f74206461792074696d6560701b60448201526064016104df565b60026004826040516113c99190611b6c565b9081526040519081900360200190206001015460ff600160a01b9091041660028111156113f8576113f86118ab565b036114605760405162461bcd60e51b815260206004820152603260248201527f596f752063616e277420766f746520666f72206120706c617965722077686f206044820152716973206e6f7420696e207468652067616d6560701b60648201526084016104df565b6004816040516114709190611b6c565b908152604051908190036020019020600201805490600061149083611b9e565b9091555050600880549060006114a583611b9e565b90915550506001805480820182556000919091527fb10e2d527612073b26eecdfd717e6a320cf44b4afac2b0732d9fcbe2b7fa0cf6016114e58282611aac565b50600b546040516004906114fa908490611b6c565b9081526020016040518091039020600201541115611546576004816040516115229190611b6c565b90815260405190819003602001902060020154600b55600c6115448282611aac565b505b6009546007546115569190611be1565b600854036112dd57600060405160049061157290600c90611c10565b9081526040519081900360200190206001015460ff600160a01b9091041660028111156115a1576115a16118ab565b036115d857600980549060006115b683611c9a565b91905055506009546000036115d3576000805460ff191660011790555b611605565b600780549060006115e883611c9a565b9190505550600754600003611605576000805460ff191660011790555b60005b60035481101561166257600060046003838154811061162957611629611bfa565b90600052602060002090600402016000016040516116479190611c10565b90815260405190819003602001902060020155600101611608565b5060405160049061167590600c90611c10565b90815260405190819003602001902060006116908282611713565b506001810180546001600160a81b03191690556000600282018190556003909101805460ff19169055600b818155906116ca600c82611713565b50506000600881905542600255600a805460ff19811660ff909116151790556040517fef5247a5efc1f0e1871a51b5876fd60ef81be6299a4200d37777f142405290639190a150565b50805461171f90611a21565b6000825580601f1061172f575050565b601f0160209004906000526020600020908101906112dd91905b8082111561175d5760008155600101611749565b5090565b60006020828403121561177357600080fd5b5035919050565b60005b8381101561179557818101518382015260200161177d565b50506000910152565b600081518084526117b681602086016020860161177a565b601f01601f19169290920160200192915050565b6020815260006117dd602083018461179e565b9392505050565b634e487b7160e01b600052604160045260246000fd5b60006020828403121561180c57600080fd5b813567ffffffffffffffff8082111561182457600080fd5b818401915084601f83011261183857600080fd5b81358181111561184a5761184a6117e4565b604051601f8201601f19908116603f01168101908382118183101715611872576118726117e4565b8160405282815287602084870101111561188b57600080fd5b826020860160208301376000928101602001929092525095945050505050565b634e487b7160e01b600052602160045260246000fd5b600381106118df57634e487b7160e01b600052602160045260246000fd5b9052565b60a0815260006118f660a083018861179e565b6001600160a01b0387166020840152905061191460408301866118c1565b83606083015282151560808301529695505050505050565b60006020828403121561193e57600080fd5b81356001600160a01b03811681146117dd57600080fd5b600060208083018184528085518083526040925060408601915060408160051b87010184880160005b838110156119f257603f19898403018552815160a081518186526119a48287018261179e565b838b01516001600160a01b0316878c01528984015190925090506119ca898701826118c1565b506060828101519086015260809182015115159190940152938601939086019060010161197e565b509098975050505050505050565b828152604060208201526000611a19604083018461179e565b949350505050565b600181811c90821680611a3557607f821691505b602082108103611a5557634e487b7160e01b600052602260045260246000fd5b50919050565b601f821115611aa7576000816000526020600020601f850160051c81016020861015611a845750805b601f850160051c820191505b81811015611aa357828155600101611a90565b5050505b505050565b815167ffffffffffffffff811115611ac657611ac66117e4565b611ada81611ad48454611a21565b84611a5b565b602080601f831160018114611b0f5760008415611af75750858301515b600019600386901b1c1916600185901b178555611aa3565b600085815260208120601f198616915b82811015611b3e57888601518255948401946001909101908401611b1f565b5085821015611b5c5787850151600019600388901b60f8161c191681555b5050505050600190811b01905550565b60008251611b7e81846020870161177a565b9190910192915050565b634e487b7160e01b600052601160045260246000fd5b600060018201611bb057611bb0611b88565b5060010190565b634e487b7160e01b600052601260045260246000fd5b600082611bdc57611bdc611bb7565b500690565b80820180821115611bf457611bf4611b88565b92915050565b634e487b7160e01b600052603260045260246000fd5b6000808354611c1e81611a21565b60018281168015611c365760018114611c4b57611c7a565b60ff1984168752821515830287019450611c7a565b8760005260208060002060005b85811015611c715781548a820152908401908201611c58565b50505082870194505b50929695505050505050565b600082611c9557611c95611bb7565b500490565b600081611ca957611ca9611b88565b50600019019056fea26469706673582212204e3b433d15a5168b467a8f667eecf00d40b68ab027d004ab7c0d535a3aa129f664736f6c63430008180033a2646970667358221220b169cfc8c40068bb19e1b4898745fe7fc1cfa6eeb05f3d2d913bc47fbf82437664736f6c63430008180033","linkReferences":{}},"methodIdentifiers":{"createLobby()":"47086404","deployedLobbies(uint256)":"5859a4bf","getDeployedLobbies()":"9dbd6267","lobbyToIndex(address)":"7672c95c","ownerToLobby(address)":"b7b003b9","updateLobbyInfo(address,bool)":"c044c412"},"id":21}