{
  "abi": [
    {
      "type": "function",
      "name": "createLobby",
      "inputs": [],
      "outputs": [],
      "stateMutability": "nonpayable"
    },
    {
      "type": "function",
      "name": "deployedLobbies",
      "inputs": [
        {
          "name": "",
          "type": "uint256",
          "internalType": "uint256"
        }
      ],
      "outputs": [
        {
          "name": "",
          "type": "address",
          "internalType": "address"
        }
      ],
      "stateMutability": "view"
    },
    {
      "type": "function",
      "name": "getDeployedLobbies",
      "inputs": [],
      "outputs": [
        {
          "name": "",
          "type": "address[]",
          "internalType": "address[]"
        }
      ],
      "stateMutability": "view"
    },
    {
      "type": "function",
      "name": "ownerToLobby",
      "inputs": [
        {
          "name": "",
          "type": "address",
          "internalType": "address"
        }
      ],
      "outputs": [
        {
          "name": "",
          "type": "address",
          "internalType": "address"
        }
      ],
      "stateMutability": "view"
    }
  ],
  "bytecode": {
    "object": "0x608060405234801561001057600080fd5b5061118e806100206000396000f3fe608060405234801561001057600080fd5b506004361061004c5760003560e01c806347086404146100515780635859a4bf1461005b5780639dbd62671461008b578063b7b003b9146100a0575b600080fd5b6100596100c9565b005b61006e6100693660046101f3565b61015a565b6040516001600160a01b0390911681526020015b60405180910390f35b610093610184565b604051610082919061020c565b61006e6100ae366004610259565b6001602052600090815260409020546001600160a01b031681565b60006040516100d7906101e6565b604051809103906000f0801580156100f3573d6000803e3d6000fd5b5060008054600181810183557f290decd9548b62a8d60345a988386fc84ba6bc95484008f6362f93160ef3e56390910180546001600160a01b039094166001600160a01b031994851681179091553383526020919091526040909120805490921617905550565b6000818154811061016a57600080fd5b6000918252602090912001546001600160a01b0316905081565b606060008054806020026020016040519081016040528092919081815260200182805480156101dc57602002820191906000526020600020905b81546001600160a01b031681526001909101906020018083116101be575b5050505050905090565b610ecf8061028a83390190565b60006020828403121561020557600080fd5b5035919050565b6020808252825182820181905260009190848201906040850190845b8181101561024d5783516001600160a01b031683529284019291840191600101610228565b50909695505050505050565b60006020828403121561026b57600080fd5b81356001600160a01b038116811461028257600080fd5b939250505056fe608060405260026007556008805460ff1916905534801561001f57600080fd5b50610ea08061002f6000396000f3fe6080604052600436106100865760003560e01c80636bba294d116100595780636bba294d146101245780638b9335641461013a578063c638407114610150578063f71d96cb14610166578063fc36e15b1461019657600080fd5b80630a39ce021461008b5780631fd192b2146100c1578063302bcc57146100eb57806333ff64a51461010f575b600080fd5b34801561009757600080fd5b506100ab6100a6366004610a42565b6101b6565b6040516100b89190610aab565b60405180910390f35b3480156100cd57600080fd5b506008546100db9060ff1681565b60405190151581526020016100b8565b3480156100f757600080fd5b5061010160055481565b6040519081526020016100b8565b61012261011d366004610adb565b610262565b005b34801561013057600080fd5b5061010160015481565b34801561014657600080fd5b5061010160075481565b34801561015c57600080fd5b5061010160065481565b34801561017257600080fd5b50610186610181366004610a42565b610621565b6040516100b89493929190610ba2565b3480156101a257600080fd5b506101226101b1366004610adb565b6106f9565b600081815481106101c657600080fd5b9060005260206000200160009150905080546101e190610bf6565b80601f016020809104026020016040519081016040528092919081815260200182805461020d90610bf6565b801561025a5780601f1061022f5761010080835404028352916020019161025a565b820191906000526020600020905b81548152906001019060200180831161023d57829003601f168201915b505050505081565b34655af3107a4000146102b15760405162461bcd60e51b8152602060048201526012602482015271151c985b9cd858dd1a5bdb8819985a5b195960721b60448201526064015b60405180910390fd5b600a600554106102f85760405162461bcd60e51b8152602060048201526012602482015271546865206c6f6262792069732066756c6c2160701b60448201526064016102a8565b60408051608081018252828152336020820152600091810160018152600060209091018190526002805460018101825591528151919250829160039091027f405787fa12a823e0f2b7631cc41b3ba8828b3321ca811111fa75cd3aa3bb5ace019081906103659082610c81565b5060208201516001820180546001600160a01b039092166001600160a01b03198316811782556040850151926001600160a81b03191617600160a01b8360028111156103b3576103b3610b8c565b021790555060608201518160020155505080600382600001516040516103d99190610d41565b908152604051908190036020019020815181906103f69082610c81565b5060208201516001820180546001600160a01b039092166001600160a01b03198316811782556040850151926001600160a81b03191617600160a01b83600281111561044457610444610b8c565b021790555060609190910151600290910155336000908152600460205260409020815182919081906104769082610c81565b5060208201516001820180546001600160a01b039092166001600160a01b03198316811782556040850151926001600160a81b03191617600160a01b8360028111156104c4576104c4610b8c565b021790555060609190910151600290910155600580549060006104e683610d73565b9190505550600554600a0361061d5742600181905560006003600261050c600985610d8c565b610517906001610dae565b8154811061052757610527610dc7565b90600052602060002090600302016000016040516105459190610ddd565b908152604051908190036020019020600101805460ff60a01b1916600160a01b83600281111561057757610577610b8c565b021790555060006003600261058d600985610d8c565b8154811061059d5761059d610dc7565b90600052602060002090600302016000016040516105bb9190610ddd565b908152604051908190036020019020600101805460ff60a01b1916600160a01b8360028111156105ed576105ed610b8c565b02179055506040517f5e123ce4613dfe236fe862290c891aef13c868dfaa513d48f245a68dc510b0b090600090a1505b5050565b6002818154811061063157600080fd5b906000526020600020906003020160009150905080600001805461065490610bf6565b80601f016020809104026020016040519081016040528092919081815260200182805461068090610bf6565b80156106cd5780601f106106a2576101008083540402835291602001916106cd565b820191906000526020600020905b8154815290600101906020018083116106b057829003601f168201915b50505050600183015460029093015491926001600160a01b03811692600160a01b90910460ff16915084565b600154610707906028610dae565b4211156107565760405162461bcd60e51b815260206004820152601760248201527f54696d6520686173206e6f74207061737365642079657400000000000000000060448201526064016102a8565b60085460ff1615156001146107a25760405162461bcd60e51b81526020600482015260126024820152714974206973206e6f74206461792074696d6560701b60448201526064016102a8565b60026003826040516107b49190610d41565b9081526040519081900360200190206001015460ff600160a01b9091041660028111156107e3576107e3610b8c565b0361084b5760405162461bcd60e51b815260206004820152603260248201527f596f752063616e277420766f746520666f72206120706c617965722077686f206044820152716973206e6f7420696e207468652067616d6560701b60648201526084016102a8565b60038160405161085b9190610d41565b908152604051908190036020019020600201805490600061087b83610d73565b90915550506006805490600061089083610d73565b9091555050600080546001810182559080527f290decd9548b62a8d60345a988386fc84ba6bc95484008f6362f93160ef3e563016108ce8282610c81565b506009546040516003906108e3908490610d41565b908152602001604051809103902060020154111561092f5760038160405161090b9190610d41565b90815260405190819003602001902060020154600955600a61092d8282610c81565b505b60055460065403610a3f57600060405160039061094e90600a90610ddd565b9081526040519081900360200190206001015460ff600160a01b90910416600281111561097d5761097d610b8c565b03610998576007805490600061099283610e53565b91905055505b6002600360096001016040516109ae9190610ddd565b908152604051908190036020019020600101805460ff60a01b1916600160a01b8360028111156109e0576109e0610b8c565b0217905550600580549060006109f583610e53565b909155505060006006819055426001556008805460ff19811660ff909116151790556040517fef5247a5efc1f0e1871a51b5876fd60ef81be6299a4200d37777f142405290639190a15b50565b600060208284031215610a5457600080fd5b5035919050565b60005b83811015610a76578181015183820152602001610a5e565b50506000910152565b60008151808452610a97816020860160208601610a5b565b601f01601f19169290920160200192915050565b602081526000610abe6020830184610a7f565b9392505050565b634e487b7160e01b600052604160045260246000fd5b600060208284031215610aed57600080fd5b813567ffffffffffffffff80821115610b0557600080fd5b818401915084601f830112610b1957600080fd5b813581811115610b2b57610b2b610ac5565b604051601f8201601f19908116603f01168101908382118183101715610b5357610b53610ac5565b81604052828152876020848701011115610b6c57600080fd5b826020860160208301376000928101602001929092525095945050505050565b634e487b7160e01b600052602160045260246000fd5b608081526000610bb56080830187610a7f565b6001600160a01b0386166020840152905060038410610be457634e487b7160e01b600052602160045260246000fd5b60408201939093526060015292915050565b600181811c90821680610c0a57607f821691505b602082108103610c2a57634e487b7160e01b600052602260045260246000fd5b50919050565b601f821115610c7c576000816000526020600020601f850160051c81016020861015610c595750805b601f850160051c820191505b81811015610c7857828155600101610c65565b5050505b505050565b815167ffffffffffffffff811115610c9b57610c9b610ac5565b610caf81610ca98454610bf6565b84610c30565b602080601f831160018114610ce45760008415610ccc5750858301515b600019600386901b1c1916600185901b178555610c78565b600085815260208120601f198616915b82811015610d1357888601518255948401946001909101908401610cf4565b5085821015610d315787850151600019600388901b60f8161c191681555b5050505050600190811b01905550565b60008251610d53818460208701610a5b565b9190910192915050565b634e487b7160e01b600052601160045260246000fd5b600060018201610d8557610d85610d5d565b5060010190565b600082610da957634e487b7160e01b600052601260045260246000fd5b500690565b80820180821115610dc157610dc1610d5d565b92915050565b634e487b7160e01b600052603260045260246000fd5b6000808354610deb81610bf6565b60018281168015610e035760018114610e1857610e47565b60ff1984168752821515830287019450610e47565b8760005260208060002060005b85811015610e3e5781548a820152908401908201610e25565b50505082870194505b50929695505050505050565b600081610e6257610e62610d5d565b50600019019056fea26469706673582212204053de063bebe433dbb8b5dd93b66ab5ef0f9d5b1ab01bb8c2aa576c5adf41ee64736f6c63430008180033a264697066735822122093324a617efd4860dfafe12de4f30df02f579da0bed479e3b264079926e3417164736f6c63430008180033",
    "linkReferences": {}
  },
  "methodIdentifiers": {
    "createLobby()": "47086404",
    "deployedLobbies(uint256)": "5859a4bf",
    "getDeployedLobbies()": "9dbd6267",
    "ownerToLobby(address)": "b7b003b9"
  },
  "id": 21
}