{"abi":[{"type":"receive","stateMutability":"payable"},{"type":"function","name":"addStake","inputs":[{"name":"unstakeDelaySec","type":"uint32","internalType":"uint32"}],"outputs":[],"stateMutability":"payable"},{"type":"function","name":"balanceOf","inputs":[{"name":"account","type":"address","internalType":"address"}],"outputs":[{"name":"","type":"uint256","internalType":"uint256"}],"stateMutability":"view"},{"type":"function","name":"delegateAndRevert","inputs":[{"name":"target","type":"address","internalType":"address"},{"name":"data","type":"bytes","internalType":"bytes"}],"outputs":[],"stateMutability":"nonpayable"},{"type":"function","name":"depositTo","inputs":[{"name":"account","type":"address","internalType":"address"}],"outputs":[],"stateMutability":"payable"},{"type":"function","name":"deposits","inputs":[{"name":"","type":"address","internalType":"address"}],"outputs":[{"name":"deposit","type":"uint256","internalType":"uint256"},{"name":"staked","type":"bool","internalType":"bool"},{"name":"stake","type":"uint112","internalType":"uint112"},{"name":"unstakeDelaySec","type":"uint32","internalType":"uint32"},{"name":"withdrawTime","type":"uint48","internalType":"uint48"}],"stateMutability":"view"},{"type":"function","name":"getDepositInfo","inputs":[{"name":"account","type":"address","internalType":"address"}],"outputs":[{"name":"info","type":"tuple","internalType":"struct IStakeManager.DepositInfo","components":[{"name":"deposit","type":"uint256","internalType":"uint256"},{"name":"staked","type":"bool","internalType":"bool"},{"name":"stake","type":"uint112","internalType":"uint112"},{"name":"unstakeDelaySec","type":"uint32","internalType":"uint32"},{"name":"withdrawTime","type":"uint48","internalType":"uint48"}]}],"stateMutability":"view"},{"type":"function","name":"getNonce","inputs":[{"name":"sender","type":"address","internalType":"address"},{"name":"key","type":"uint192","internalType":"uint192"}],"outputs":[{"name":"nonce","type":"uint256","internalType":"uint256"}],"stateMutability":"view"},{"type":"function","name":"getSenderAddress","inputs":[{"name":"initCode","type":"bytes","internalType":"bytes"}],"outputs":[],"stateMutability":"nonpayable"},{"type":"function","name":"getUserOpHash","inputs":[{"name":"userOp","type":"tuple","internalType":"struct PackedUserOperation","components":[{"name":"sender","type":"address","internalType":"address"},{"name":"nonce","type":"uint256","internalType":"uint256"},{"name":"initCode","type":"bytes","internalType":"bytes"},{"name":"callData","type":"bytes","internalType":"bytes"},{"name":"accountGasLimits","type":"bytes32","internalType":"bytes32"},{"name":"preVerificationGas","type":"uint256","internalType":"uint256"},{"name":"gasFees","type":"bytes32","internalType":"bytes32"},{"name":"paymasterAndData","type":"bytes","internalType":"bytes"},{"name":"signature","type":"bytes","internalType":"bytes"}]}],"outputs":[{"name":"","type":"bytes32","internalType":"bytes32"}],"stateMutability":"view"},{"type":"function","name":"handleAggregatedOps","inputs":[{"name":"opsPerAggregator","type":"tuple[]","internalType":"struct IEntryPoint.UserOpsPerAggregator[]","components":[{"name":"userOps","type":"tuple[]","internalType":"struct PackedUserOperation[]","components":[{"name":"sender","type":"address","internalType":"address"},{"name":"nonce","type":"uint256","internalType":"uint256"},{"name":"initCode","type":"bytes","internalType":"bytes"},{"name":"callData","type":"bytes","internalType":"bytes"},{"name":"accountGasLimits","type":"bytes32","internalType":"bytes32"},{"name":"preVerificationGas","type":"uint256","internalType":"uint256"},{"name":"gasFees","type":"bytes32","internalType":"bytes32"},{"name":"paymasterAndData","type":"bytes","internalType":"bytes"},{"name":"signature","type":"bytes","internalType":"bytes"}]},{"name":"aggregator","type":"address","internalType":"contract IAggregator"},{"name":"signature","type":"bytes","internalType":"bytes"}]},{"name":"beneficiary","type":"address","internalType":"address payable"}],"outputs":[],"stateMutability":"nonpayable"},{"type":"function","name":"handleOps","inputs":[{"name":"ops","type":"tuple[]","internalType":"struct PackedUserOperation[]","components":[{"name":"sender","type":"address","internalType":"address"},{"name":"nonce","type":"uint256","internalType":"uint256"},{"name":"initCode","type":"bytes","internalType":"bytes"},{"name":"callData","type":"bytes","internalType":"bytes"},{"name":"accountGasLimits","type":"bytes32","internalType":"bytes32"},{"name":"preVerificationGas","type":"uint256","internalType":"uint256"},{"name":"gasFees","type":"bytes32","internalType":"bytes32"},{"name":"paymasterAndData","type":"bytes","internalType":"bytes"},{"name":"signature","type":"bytes","internalType":"bytes"}]},{"name":"beneficiary","type":"address","internalType":"address payable"}],"outputs":[],"stateMutability":"nonpayable"},{"type":"function","name":"incrementNonce","inputs":[{"name":"key","type":"uint192","internalType":"uint192"}],"outputs":[],"stateMutability":"nonpayable"},{"type":"function","name":"innerHandleOp","inputs":[{"name":"callData","type":"bytes","internalType":"bytes"},{"name":"opInfo","type":"tuple","internalType":"struct EntryPoint.UserOpInfo","components":[{"name":"mUserOp","type":"tuple","internalType":"struct EntryPoint.MemoryUserOp","components":[{"name":"sender","type":"address","internalType":"address"},{"name":"nonce","type":"uint256","internalType":"uint256"},{"name":"verificationGasLimit","type":"uint256","internalType":"uint256"},{"name":"callGasLimit","type":"uint256","internalType":"uint256"},{"name":"paymasterVerificationGasLimit","type":"uint256","internalType":"uint256"},{"name":"paymasterPostOpGasLimit","type":"uint256","internalType":"uint256"},{"name":"preVerificationGas","type":"uint256","internalType":"uint256"},{"name":"paymaster","type":"address","internalType":"address"},{"name":"maxFeePerGas","type":"uint256","internalType":"uint256"},{"name":"maxPriorityFeePerGas","type":"uint256","internalType":"uint256"}]},{"name":"userOpHash","type":"bytes32","internalType":"bytes32"},{"name":"prefund","type":"uint256","internalType":"uint256"},{"name":"contextOffset","type":"uint256","internalType":"uint256"},{"name":"preOpGas","type":"uint256","internalType":"uint256"}]},{"name":"context","type":"bytes","internalType":"bytes"}],"outputs":[{"name":"actualGasCost","type":"uint256","internalType":"uint256"}],"stateMutability":"nonpayable"},{"type":"function","name":"nonceSequenceNumber","inputs":[{"name":"","type":"address","internalType":"address"},{"name":"","type":"uint192","internalType":"uint192"}],"outputs":[{"name":"","type":"uint256","internalType":"uint256"}],"stateMutability":"view"},{"type":"function","name":"supportsInterface","inputs":[{"name":"interfaceId","type":"bytes4","internalType":"bytes4"}],"outputs":[{"name":"","type":"bool","internalType":"bool"}],"stateMutability":"view"},{"type":"function","name":"unlockStake","inputs":[],"outputs":[],"stateMutability":"nonpayable"},{"type":"function","name":"withdrawStake","inputs":[{"name":"withdrawAddress","type":"address","internalType":"address payable"}],"outputs":[],"stateMutability":"nonpayable"},{"type":"function","name":"withdrawTo","inputs":[{"name":"withdrawAddress","type":"address","internalType":"address payable"},{"name":"withdrawAmount","type":"uint256","internalType":"uint256"}],"outputs":[],"stateMutability":"nonpayable"},{"type":"event","name":"AccountDeployed","inputs":[{"name":"userOpHash","type":"bytes32","indexed":true,"internalType":"bytes32"},{"name":"sender","type":"address","indexed":true,"internalType":"address"},{"name":"factory","type":"address","indexed":false,"internalType":"address"},{"name":"paymaster","type":"address","indexed":false,"internalType":"address"}],"anonymous":false},{"type":"event","name":"BeforeExecution","inputs":[],"anonymous":false},{"type":"event","name":"Deposited","inputs":[{"name":"account","type":"address","indexed":true,"internalType":"address"},{"name":"totalDeposit","type":"uint256","indexed":false,"internalType":"uint256"}],"anonymous":false},{"type":"event","name":"PostOpRevertReason","inputs":[{"name":"userOpHash","type":"bytes32","indexed":true,"internalType":"bytes32"},{"name":"sender","type":"address","indexed":true,"internalType":"address"},{"name":"nonce","type":"uint256","indexed":false,"internalType":"uint256"},{"name":"revertReason","type":"bytes","indexed":false,"internalType":"bytes"}],"anonymous":false},{"type":"event","name":"SignatureAggregatorChanged","inputs":[{"name":"aggregator","type":"address","indexed":true,"internalType":"address"}],"anonymous":false},{"type":"event","name":"StakeLocked","inputs":[{"name":"account","type":"address","indexed":true,"internalType":"address"},{"name":"totalStaked","type":"uint256","indexed":false,"internalType":"uint256"},{"name":"unstakeDelaySec","type":"uint256","indexed":false,"internalType":"uint256"}],"anonymous":false},{"type":"event","name":"StakeUnlocked","inputs":[{"name":"account","type":"address","indexed":true,"internalType":"address"},{"name":"withdrawTime","type":"uint256","indexed":false,"internalType":"uint256"}],"anonymous":false},{"type":"event","name":"StakeWithdrawn","inputs":[{"name":"account","type":"address","indexed":true,"internalType":"address"},{"name":"withdrawAddress","type":"address","indexed":false,"internalType":"address"},{"name":"amount","type":"uint256","indexed":false,"internalType":"uint256"}],"anonymous":false},{"type":"event","name":"UserOperationEvent","inputs":[{"name":"userOpHash","type":"bytes32","indexed":true,"internalType":"bytes32"},{"name":"sender","type":"address","indexed":true,"internalType":"address"},{"name":"paymaster","type":"address","indexed":true,"internalType":"address"},{"name":"nonce","type":"uint256","indexed":false,"internalType":"uint256"},{"name":"success","type":"bool","indexed":false,"internalType":"bool"},{"name":"actualGasCost","type":"uint256","indexed":false,"internalType":"uint256"},{"name":"actualGasUsed","type":"uint256","indexed":false,"internalType":"uint256"}],"anonymous":false},{"type":"event","name":"UserOperationPrefundTooLow","inputs":[{"name":"userOpHash","type":"bytes32","indexed":true,"internalType":"bytes32"},{"name":"sender","type":"address","indexed":true,"internalType":"address"},{"name":"nonce","type":"uint256","indexed":false,"internalType":"uint256"}],"anonymous":false},{"type":"event","name":"UserOperationRevertReason","inputs":[{"name":"userOpHash","type":"bytes32","indexed":true,"internalType":"bytes32"},{"name":"sender","type":"address","indexed":true,"internalType":"address"},{"name":"nonce","type":"uint256","indexed":false,"internalType":"uint256"},{"name":"revertReason","type":"bytes","indexed":false,"internalType":"bytes"}],"anonymous":false},{"type":"event","name":"Withdrawn","inputs":[{"name":"account","type":"address","indexed":true,"internalType":"address"},{"name":"withdrawAddress","type":"address","indexed":false,"internalType":"address"},{"name":"amount","type":"uint256","indexed":false,"internalType":"uint256"}],"anonymous":false},{"type":"error","name":"DelegateAndRevert","inputs":[{"name":"success","type":"bool","internalType":"bool"},{"name":"ret","type":"bytes","internalType":"bytes"}]},{"type":"error","name":"FailedOp","inputs":[{"name":"opIndex","type":"uint256","internalType":"uint256"},{"name":"reason","type":"string","internalType":"string"}]},{"type":"error","name":"FailedOpWithRevert","inputs":[{"name":"opIndex","type":"uint256","internalType":"uint256"},{"name":"reason","type":"string","internalType":"string"},{"name":"inner","type":"bytes","internalType":"bytes"}]},{"type":"error","name":"PostOpReverted","inputs":[{"name":"returnData","type":"bytes","internalType":"bytes"}]},{"type":"error","name":"ReentrancyGuardReentrantCall","inputs":[]},{"type":"error","name":"SenderAddressResult","inputs":[{"name":"sender","type":"address","internalType":"address"}]},{"type":"error","name":"SignatureValidationFailed","inputs":[{"name":"aggregator","type":"address","internalType":"address"}]}],"bytecode":{"object":"0x60a0604052604051620000129062000055565b604051809103906000f0801580156200002f573d6000803e3d6000fd5b506001600160a01b03166080523480156200004957600080fd5b50600160025562000063565b610213806200387783390190565b6080516137f16200008660003960008181610e2101526127b601526137f16000f3fe60806040526004361061010c5760003560e01c806370a0823111610095578063b760faf911610064578063b760faf91461043d578063bb9fe6bf14610450578063c23a5cea14610465578063dbed18e014610485578063fc7e286d146104a557600080fd5b806370a08231146103a7578063765e827f146103dd578063850aaf62146103fd5780639b249f691461041d57600080fd5b80631b2e01b8116100dc5780631b2e01b8146101b7578063205c2878146101ef57806322cdde4c1461020f57806335567e1a1461022f5780635287ce121461028f57600080fd5b806242dc531461012157806301ffc9a7146101545780630396cb60146101845780630bd28e3b1461019757600080fd5b3661011c5761011a3361054d565b005b600080fd5b34801561012d57600080fd5b5061014161013c366004612d12565b6105a2565b6040519081526020015b60405180910390f35b34801561016057600080fd5b5061017461016f366004612dd1565b61072b565b604051901515815260200161014b565b61011a610192366004612dfb565b6107b3565b3480156101a357600080fd5b5061011a6101b2366004612e38565b610a42565b3480156101c357600080fd5b506101416101d2366004612e53565b600160209081526000928352604080842090915290825290205481565b3480156101fb57600080fd5b5061011a61020a366004612e88565b610a79565b34801561021b57600080fd5b5061014161022a366004612eb4565b610bca565b34801561023b57600080fd5b5061014161024a366004612e53565b6001600160a01b03821660009081526001602090815260408083206001600160c01b038516845290915290819020549082901b67ffffffffffffffff19161792915050565b34801561029b57600080fd5b5061034c6102aa366004612eef565b6040805160a081018252600080825260208201819052918101829052606081018290526080810191909152506001600160a01b031660009081526020818152604091829020825160a0810184528154815260019091015460ff811615159282019290925261010082046001600160701b031692810192909252600160781b810463ffffffff166060830152600160981b900465ffffffffffff16608082015290565b60405161014b9190600060a082019050825182526020830151151560208301526001600160701b03604084015116604083015263ffffffff606084015116606083015265ffffffffffff608084015116608083015292915050565b3480156103b357600080fd5b506101416103c2366004612eef565b6001600160a01b031660009081526020819052604090205490565b3480156103e957600080fd5b5061011a6103f8366004612f50565b610c0c565b34801561040957600080fd5b5061011a610418366004612fa6565b610d88565b34801561042957600080fd5b5061011a610438366004612ffa565b610e07565b61011a61044b366004612eef565b61054d565b34801561045c57600080fd5b5061011a610ec2565b34801561047157600080fd5b5061011a610480366004612eef565b610fee565b34801561049157600080fd5b5061011a6104a0366004612f50565b611212565b3480156104b157600080fd5b5061050a6104c0366004612eef565b6000602081905290815260409020805460019091015460ff81169061010081046001600160701b031690600160781b810463ffffffff1690600160981b900465ffffffffffff1685565b6040805195865293151560208601526001600160701b039092169284019290925263ffffffff909116606083015265ffffffffffff16608082015260a00161014b565b6000610559823461162b565b9050816001600160a01b03167f2da466a7b24304f47e87fa2e1e5a81b9831ce54fec19055ce277ca2f39ba42c48260405161059691815260200190565b60405180910390a25050565b6000805a90503330146105fc5760405162461bcd60e51b815260206004820152601760248201527f4141393220696e7465726e616c2063616c6c206f6e6c7900000000000000000060448201526064015b60405180910390fd5b8451606081015160a082015181016127100160405a603f02816106215761062161303b565b0410156106395763deaddead60e01b60005260206000fd5b8751600090156106cd576000610656846000015160008c8661165e565b9050806106cb57600061066a610800611676565b8051909150156106c55784600001516001600160a01b03168a602001517f1c4fada7374c0a9ee8841fc38afe82932dc0f8e69012e927f061a8bae611a2018760200151846040516106bc9291906130a1565b60405180910390a35b60019250505b505b600088608001515a860301905061071d828a8a8a8080601f0160208091040260200160405190810160405280939291908181526020018383808284376000920191909152508792506116a2915050565b9a9950505050505050505050565b60006001600160e01b0319821663307e35b760e11b148061075c57506001600160e01b0319821663122a0e9b60e31b145b8061077757506001600160e01b0319821663cf28ef9760e01b145b8061079257506001600160e01b03198216633e84f02160e01b145b806107ad57506301ffc9a760e01b6001600160e01b03198316145b92915050565b33600090815260208190526040902063ffffffff82166108155760405162461bcd60e51b815260206004820152601a60248201527f6d757374207370656369667920756e7374616b652064656c617900000000000060448201526064016105f3565b600181015463ffffffff600160781b9091048116908316101561087a5760405162461bcd60e51b815260206004820152601c60248201527f63616e6e6f7420646563726561736520756e7374616b652074696d650000000060448201526064016105f3565b600181015460009061089b90349061010090046001600160701b03166130d0565b9050600081116108e25760405162461bcd60e51b81526020600482015260126024820152711b9bc81cdd185ad9481cdc1958da599a595960721b60448201526064016105f3565b6001600160701b0381111561092a5760405162461bcd60e51b815260206004820152600e60248201526d7374616b65206f766572666c6f7760901b60448201526064016105f3565b6040805160a08101825283548152600160208083018281526001600160701b0386811685870190815263ffffffff8a811660608801818152600060808a0181815233808352828a52918c90209a518b55965199909801805494519151965165ffffffffffff16600160981b0265ffffffffffff60981b1997909416600160781b029690961669ffffffffffffffffffff60781b1991909516610100026effffffffffffffffffffffffffff0019991515999099166effffffffffffffffffffffffffffff1990941693909317979097179190911691909117179055835185815290810192909252917fa5ae833d0bb1dcd632d98a8b70973e8516812898e19bf27b70071ebc8dc52c01910160405180910390a2505050565b3360009081526001602090815260408083206001600160c01b03851684529091528120805491610a71836130e3565b919050555050565b3360009081526020819052604090208054821115610ad95760405162461bcd60e51b815260206004820152601960248201527f576974686472617720616d6f756e7420746f6f206c617267650000000000000060448201526064016105f3565b8054610ae69083906130fc565b8155604080516001600160a01b03851681526020810184905233917fd1c19fbcd4551a5edfb66d43d2e337c04837afda3482b42bdf569a8fccdae5fb910160405180910390a26000836001600160a01b03168360405160006040518083038185875af1925050503d8060008114610b79576040519150601f19603f3d011682016040523d82523d6000602084013e610b7e565b606091505b5050905080610bc45760405162461bcd60e51b81526020600482015260126024820152716661696c656420746f20776974686472617760701b60448201526064016105f3565b50505050565b6000610bd582611865565b6040805160208101929092523090820152466060820152608001604051602081830303815290604052805190602001209050919050565b610c1461187e565b816000816001600160401b03811115610c2f57610c2f612b12565b604051908082528060200260200182016040528015610c6857816020015b610c55612a7a565b815260200190600190039081610c4d5790505b50905060005b82811015610ce1576000828281518110610c8a57610c8a61310f565b60200260200101519050600080610cc5848a8a87818110610cad57610cad61310f565b9050602002810190610cbf9190613125565b856118a6565b91509150610cd68483836000611aac565b505050600101610c6e565b506040516000907fbb47ee3e183a558b1a2ff0874b079f3fc5478b7454eacf2bfc5af2ff5878f972908290a160005b83811015610d6b57610d5f81888884818110610d2e57610d2e61310f565b9050602002810190610d409190613125565b858481518110610d5257610d5261310f565b6020026020010151611c48565b90910190600101610d10565b50610d768482611f04565b505050610d836001600255565b505050565b600080846001600160a01b03168484604051610da5929190613146565b600060405180830381855af49150503d8060008114610de0576040519150601f19603f3d011682016040523d82523d6000602084013e610de5565b606091505b50915091508181604051632650415560e21b81526004016105f3929190613156565b604051632b870d1b60e11b81526000906001600160a01b037f0000000000000000000000000000000000000000000000000000000000000000169063570e1a3690610e58908690869060040161319a565b6020604051808303816000875af1158015610e77573d6000803e3d6000fd5b505050506040513d601f19601f82011682018060405250810190610e9b91906131ae565b604051633653dc0360e11b81526001600160a01b03821660048201529091506024016105f3565b33600090815260208190526040812060018101549091600160781b90910463ffffffff169003610f215760405162461bcd60e51b815260206004820152600a6024820152691b9bdd081cdd185ad95960b21b60448201526064016105f3565b600181015460ff16610f695760405162461bcd60e51b8152602060048201526011602482015270616c726561647920756e7374616b696e6760781b60448201526064016105f3565b6001810154600090610f8890600160781b900463ffffffff16426131cb565b60018301805460ff65ffffffffffff60981b011916600160981b65ffffffffffff841690810260ff19169190911790915560405190815290915033907ffa9b3c14cc825c412c9ed81b3ba365a5b459439403f18829e572ed53a4180f0a90602001610596565b336000908152602081905260409020600181015461010090046001600160701b0316806110545760405162461bcd60e51b81526020600482015260146024820152734e6f207374616b6520746f20776974686472617760601b60448201526064016105f3565b6001820154600160981b900465ffffffffffff166110b45760405162461bcd60e51b815260206004820152601d60248201527f6d7573742063616c6c20756e6c6f636b5374616b65282920666972737400000060448201526064016105f3565b600182015442600160981b90910465ffffffffffff1611156111185760405162461bcd60e51b815260206004820152601b60248201527f5374616b65207769746864726177616c206973206e6f7420647565000000000060448201526064016105f3565b600182018054610100600160c81b0319169055604080516001600160a01b03851681526020810183905233917fb7c918e0e249f999e965cafeb6c664271b3f4317d296461500e71da39f0cbda3910160405180910390a26000836001600160a01b03168260405160006040518083038185875af1925050503d80600081146111bc576040519150601f19603f3d011682016040523d82523d6000602084013e6111c1565b606091505b5050905080610bc45760405162461bcd60e51b815260206004820152601860248201527f6661696c656420746f207769746864726177207374616b65000000000000000060448201526064016105f3565b61121a61187e565b816000805b82811015611387573686868381811061123a5761123a61310f565b905060200281019061124c91906131f1565b905036600061125b8380613207565b909250905060006112726040850160208601612eef565b90506000196001600160a01b038216016112ce5760405162461bcd60e51b815260206004820152601760248201527f4141393620696e76616c69642061676772656761746f7200000000000000000060448201526064016105f3565b6001600160a01b0381161561136b576001600160a01b038116632dd8113384846112fb6040890189613250565b6040518563ffffffff1660e01b815260040161131a94939291906133ba565b60006040518083038186803b15801561133257600080fd5b505afa925050508015611343575060015b61136b5760405163086a9f7560e41b81526001600160a01b03821660048201526024016105f3565b61137582876130d0565b9550506001909301925061121f915050565b506000816001600160401b038111156113a2576113a2612b12565b6040519080825280602002602001820160405280156113db57816020015b6113c8612a7a565b8152602001906001900390816113c05790505b5090506000805b848110156114b857368888838181106113fd576113fd61310f565b905060200281019061140f91906131f1565b905036600061141e8380613207565b909250905060006114356040850160208601612eef565b90508160005b818110156114a65760008989815181106114575761145761310f565b6020026020010151905060008061147a8b898987818110610cad57610cad61310f565b9150915061148a84838389611aac565b8a611494816130e3565b9b50506001909301925061143b915050565b5050600190940193506113e292505050565b506040517fbb47ee3e183a558b1a2ff0874b079f3fc5478b7454eacf2bfc5af2ff5878f97290600090a150600080805b858110156115e657368989838181106115035761150361310f565b905060200281019061151591906131f1565b90506115276040820160208301612eef565b6001600160a01b03167f575ff3acadd5ab348fe1855e217e0f3678f8d767d7494c9f9fefbee2e17cca4d60405160405180910390a23660006115698380613207565b90925090508060005b818110156115d5576115b4888585848181106115905761159061310f565b90506020028101906115a29190613125565b8b8b81518110610d5257610d5261310f565b6115be90886130d0565b9650876115ca816130e3565b985050600101611572565b5050600190930192506114e8915050565b506040516000907f575ff3acadd5ab348fe1855e217e0f3678f8d767d7494c9f9fefbee2e17cca4d908290a261161c8682611f04565b5050505050610d836001600255565b6001600160a01b0382166000908152602081905260408120805482906116529085906130d0565b91829055509392505050565b6000806000845160208601878987f195945050505050565b60603d828111156116845750815b604051602082018101604052818152816000602083013e9392505050565b6000805a8551909150600090816116b882611ffd565b60e08301519091506001600160a01b0381166116d75782519350611793565b80935060008851111561179357868202955060028a60028111156116fd576116fd613437565b146117935760a0830151604051637c627b2160e01b81526001600160a01b03831691637c627b2191611739908e908d908c90899060040161344d565b600060405180830381600088803b15801561175357600080fd5b5087f193505050508015611765575060015b611793576000611776610800611676565b905080604051632b5e552f60e21b81526004016105f39190613497565b5a60a0840151606085015160808c0151928803999099019801908803808211156117c6576064600a828403020498909801975b505060408901518783029650868110156118225760028b60028111156117ee576117ee613437565b03611811578096506117ff8a61202f565b61180c8a6000898b61207e565b611857565b63deadaa5160e01b60005260206000fd5b86810361182f868261162b565b506000808d600281111561184557611845613437565b1490506118548c828b8d61207e565b50505b505050505050949350505050565b6000611870826120f9565b805190602001209050919050565b60028054036118a057604051633ee5aeb560e01b815260040160405180910390fd5b60028055565b60008060005a84519091506118bb86826121b1565b6118c486610bca565b6020860152604081015161012082015161010083015160a08401516080850151606086015160c0870151861717171717176effffffffffffffffffffffffffffff8111156119545760405162461bcd60e51b815260206004820152601860248201527f41413934206761732076616c756573206f766572666c6f77000000000000000060448201526064016105f3565b60006119838460c081015160a08201516080830151606084015160408501516101009095015194010101010290565b90506119928a8a8a84876122bf565b96506119a684600001518560200151612456565b6119fc5789604051631101335b60e11b81526004016105f3918152604060208201819052601a908201527f4141323520696e76616c6964206163636f756e74206e6f6e6365000000000000606082015260800190565b825a86031115611a585789604051631101335b60e11b81526004016105f3918152604060208201819052601e908201527f41413236206f76657220766572696669636174696f6e4761734c696d69740000606082015260800190565b60e08401516060906001600160a01b031615611a7f57611a7a8b8b8b856124a3565b975090505b604089018290528060608a015260a08a01355a870301896080018181525050505050505050935093915050565b600080611ab885612661565b91509150816001600160a01b0316836001600160a01b031614611b1e5785604051631101335b60e11b81526004016105f39181526040602082018190526014908201527320a0991a1039b4b3b730ba3ab9329032b93937b960611b606082015260800190565b8015611b765785604051631101335b60e11b81526004016105f39181526040602082018190526017908201527f414132322065787069726564206f72206e6f7420647565000000000000000000606082015260800190565b6000611b8185612661565b925090506001600160a01b03811615611bdd5786604051631101335b60e11b81526004016105f39181526040602082018190526014908201527320a0999a1039b4b3b730ba3ab9329032b93937b960611b606082015260800190565b8115611c3f5786604051631101335b60e11b81526004016105f39181526040602082018190526021908201527f41413332207061796d61737465722065787069726564206f72206e6f742064756060820152606560f81b608082015260a00190565b50505050505050565b6000805a90506000611c5b846060015190565b6040519091506000903682611c7360608a018a613250565b9150915060606000826003811115611c8a57843591505b506372288ed160e01b6001600160e01b0319821601611d385760008b8b60200151604051602401611cbc9291906134aa565b60408051601f198184030181529181526020820180516001600160e01b0316638dd7712f60e01b1790525190915030906242dc5390611d039084908f908d90602401613576565b604051602081830303815290604052915060e01b6020820180516001600160e01b038381831617835250505050925050611d8d565b306001600160a01b03166242dc5385858d8b604051602401611d5d94939291906135b6565b604051602081830303815290604052915060e01b6020820180516001600160e01b03838183161783525050505091505b602060008351602085016000305af19550600051985084604052505050505080611efa5760003d80602003611dc85760206000803e60005191505b5063deaddead60e01b8103611e1b5787604051631101335b60e11b81526004016105f3918152604060208201819052600f908201526e41413935206f7574206f662067617360881b606082015260800190565b63deadaa5160e01b8103611e6c57600086608001515a611e3b90876130fc565b611e4591906130d0565b6040880151909150611e568861202f565b611e63886000838561207e565b9550611ef89050565b855180516020808901519201516001600160a01b0390911691907ff62676f440ff169a3a9afdbf812e89e7f95975ee8e5c31214ffdef631c5f479290611eb3610800611676565b604051611ec19291906130a1565b60405180910390a3600086608001515a611edb90876130fc565b611ee591906130d0565b9050611ef460028886846116a2565b9550505b505b5050509392505050565b6001600160a01b038216611f5a5760405162461bcd60e51b815260206004820152601860248201527f4141393020696e76616c69642062656e6566696369617279000000000000000060448201526064016105f3565b6000826001600160a01b03168260405160006040518083038185875af1925050503d8060008114611fa7576040519150601f19603f3d011682016040523d82523d6000602084013e611fac565b606091505b5050905080610d835760405162461bcd60e51b815260206004820152601f60248201527f41413931206661696c65642073656e6420746f2062656e65666963696172790060448201526064016105f3565b6101008101516101208201516000919080820361201b575092915050565b612027824883016126b4565b949350505050565b80518051602080840151928101516040519081526001600160a01b0390921692917f67b4fa9642f42120bf031f3051d1824b0fe25627945b27b8a6a65d5761d5482e910160405180910390a350565b835160e081015181516020808801519301516040516001600160a01b039384169492909316927f49628fd1471006c1482da88028e9ce4dbb080b815c9b0344d39e5a8e6ec1419f916120eb9189908990899093845291151560208401526040830152606082015260800190565b60405180910390a450505050565b60608135602083013560006121196121146040870187613250565b6126cc565b9050600061212d6121146060880188613250565b9050608086013560a087013560c0880135600061215061211460e08c018c613250565b604080516001600160a01b039a909a1660208b015289810198909852606089019690965250608087019390935260a086019190915260c085015260e08401526101008084019190915281518084039091018152610120909201905292915050565b6121be6020830183612eef565b6001600160a01b03168152602082810135908201526001600160801b036080808401358281166060850152811c604084015260a084013560c0808501919091528401359182166101008401521c61012082015236600061222160e0850185613250565b909250905080156122a457603481101561227d5760405162461bcd60e51b815260206004820152601d60248201527f4141393320696e76616c6964207061796d6173746572416e644461746100000060448201526064016105f3565b61228782826126df565b60a086015260808501526001600160a01b031660e0840152610bc4565b600060e084018190526080840181905260a084015250505050565b82518051600091906122de88876122d960408b018b613250565b612747565b60e082015160006001600160a01b038216612322576001600160a01b03831660009081526020819052604090205487811161231b5780880361231e565b60005b9150505b60208801516040516306608bdf60e21b81526001600160a01b038516916319822f7c918991612358918e919087906004016135ed565b60206040518083038160008887f193505050508015612394575060408051601f3d908101601f1916820190925261239191810190613612565b60015b6123bf57896123a4610800611676565b6040516365c8fd4d60e01b81526004016105f392919061362b565b94506001600160a01b038216612449576001600160a01b0383166000908152602081905260409020805480891115612443578b604051631101335b60e11b81526004016105f39181526040602082018190526017908201527f41413231206469646e2774207061792070726566756e64000000000000000000606082015260800190565b88900390555b5050505095945050505050565b6001600160a01b038216600090815260016020908152604080832084821c80855292528220805484916001600160401b038316919085612495836130e3565b909155501495945050505050565b60606000805a855160e08101516001600160a01b0381166000908152602081905260409020805493945091929091908781101561252c578a604051631101335b60e11b81526004016105f3918152604060208201819052601e908201527f41413331207061796d6173746572206465706f73697420746f6f206c6f770000606082015260800190565b8781038260000181905550600084608001519050836001600160a01b03166352b7512c828d8d602001518d6040518563ffffffff1660e01b8152600401612575939291906135ed565b60006040518083038160008887f1935050505080156125b657506040513d6000823e601f3d908101601f191682016040526125b39190810190613668565b60015b6125e1578b6125c6610800611676565b6040516365c8fd4d60e01b81526004016105f39291906136e8565b9098509650805a87031115612652578b604051631101335b60e11b81526004016105f39181526040602082018190526027908201527f41413336206f766572207061796d6173746572566572696669636174696f6e47606082015266185cd31a5b5a5d60ca1b608082015260a00190565b50505050505094509492505050565b6000808260000361267757506000928392509050565b600061268284612a09565b9050806040015165ffffffffffff164211806126a95750806020015165ffffffffffff1642105b905194909350915050565b60008183106126c357816126c5565b825b9392505050565b6000604051828085833790209392505050565b600080806126f06014828688613725565b6126f99161374f565b60601c61270a602460148789613725565b61271391613784565b60801c61272460346024888a613725565b61272d91613784565b9194506001600160801b0316925060801c90509250925092565b8015610bc4578251516001600160a01b0381163b156127b25784604051631101335b60e11b81526004016105f3918152604060208201819052601f908201527f414131302073656e64657220616c726561647920636f6e737472756374656400606082015260800190565b60007f00000000000000000000000000000000000000000000000000000000000000006001600160a01b031663570e1a3686600001516040015186866040518463ffffffff1660e01b815260040161280b92919061319a565b60206040518083038160008887f115801561282a573d6000803e3d6000fd5b50505050506040513d601f19601f8201168201806040525081019061284f91906131ae565b90506001600160a01b0381166128b15785604051631101335b60e11b81526004016105f3918152604060208201819052601b908201527f4141313320696e6974436f6465206661696c6564206f72204f4f470000000000606082015260800190565b816001600160a01b0316816001600160a01b03161461291b5785604051631101335b60e11b81526004016105f391815260406020808301829052908201527f4141313420696e6974436f6465206d7573742072657475726e2073656e646572606082015260800190565b806001600160a01b03163b60000361297e5785604051631101335b60e11b81526004016105f391815260406020808301829052908201527f4141313520696e6974436f6465206d757374206372656174652073656e646572606082015260800190565b600061298d6014828688613725565b6129969161374f565b60601c9050826001600160a01b031686602001517fd51a9c61267aa6196961883ecf5ff2da6619c37dac0fa92122513fb32c032d2d83896000015160e001516040516129f89291906001600160a01b0392831681529116602082015260400190565b60405180910390a350505050505050565b60408051606081018252600080825260208201819052918101919091528160a081901c65ffffffffffff8116600003612a45575065ffffffffffff5b604080516060810182526001600160a01b03909316835260d09490941c602083015265ffffffffffff16928101929092525090565b6040518060a00160405280612aed60405180610140016040528060006001600160a01b0316815260200160008152602001600081526020016000815260200160008152602001600081526020016000815260200160006001600160a01b0316815260200160008152602001600081525090565b8152602001600080191681526020016000815260200160008152602001600081525090565b634e487b7160e01b600052604160045260246000fd5b60405160a081016001600160401b0381118282101715612b4a57612b4a612b12565b60405290565b60405161014081016001600160401b0381118282101715612b4a57612b4a612b12565b604051601f8201601f191681016001600160401b0381118282101715612b9b57612b9b612b12565b604052919050565b60006001600160401b03821115612bbc57612bbc612b12565b50601f01601f191660200190565b6001600160a01b0381168114612bdf57600080fd5b50565b8035612bed81612bca565b919050565b60008183036101c0811215612c0657600080fd5b612c0e612b28565b915061014080821215612c2057600080fd5b612c28612b50565b9150612c3384612be2565b82526020840135602083015260408401356040830152606084013560608301526080840135608083015260a084013560a083015260c084013560c0830152612c7d60e08501612be2565b60e0830152610100848101359083015261012080850135908301529082528201356020820152610160820135604082015261018082013560608201526101a0909101356080820152919050565b60008083601f840112612cdc57600080fd5b5081356001600160401b03811115612cf357600080fd5b602083019150836020828501011115612d0b57600080fd5b9250929050565b6000806000806102008587031215612d2957600080fd5b84356001600160401b0380821115612d4057600080fd5b818701915087601f830112612d5457600080fd5b8135612d67612d6282612ba3565b612b73565b818152896020838601011115612d7c57600080fd5b816020850160208301376000602083830101528097505050612da18860208901612bf2565b94506101e0870135915080821115612db857600080fd5b50612dc587828801612cca565b95989497509550505050565b600060208284031215612de357600080fd5b81356001600160e01b0319811681146126c557600080fd5b600060208284031215612e0d57600080fd5b813563ffffffff811681146126c557600080fd5b80356001600160c01b0381168114612bed57600080fd5b600060208284031215612e4a57600080fd5b6126c582612e21565b60008060408385031215612e6657600080fd5b8235612e7181612bca565b9150612e7f60208401612e21565b90509250929050565b60008060408385031215612e9b57600080fd5b8235612ea681612bca565b946020939093013593505050565b600060208284031215612ec657600080fd5b81356001600160401b03811115612edc57600080fd5b820161012081850312156126c557600080fd5b600060208284031215612f0157600080fd5b81356126c581612bca565b60008083601f840112612f1e57600080fd5b5081356001600160401b03811115612f3557600080fd5b6020830191508360208260051b8501011115612d0b57600080fd5b600080600060408486031215612f6557600080fd5b83356001600160401b03811115612f7b57600080fd5b612f8786828701612f0c565b9094509250506020840135612f9b81612bca565b809150509250925092565b600080600060408486031215612fbb57600080fd5b8335612fc681612bca565b925060208401356001600160401b03811115612fe157600080fd5b612fed86828701612cca565b9497909650939450505050565b6000806020838503121561300d57600080fd5b82356001600160401b0381111561302357600080fd5b61302f85828601612cca565b90969095509350505050565b634e487b7160e01b600052601260045260246000fd5b60005b8381101561306c578181015183820152602001613054565b50506000910152565b6000815180845261308d816020860160208601613051565b601f01601f19169290920160200192915050565b8281526040602082015260006120276040830184613075565b634e487b7160e01b600052601160045260246000fd5b808201808211156107ad576107ad6130ba565b6000600182016130f5576130f56130ba565b5060010190565b818103818111156107ad576107ad6130ba565b634e487b7160e01b600052603260045260246000fd5b6000823561011e1983360301811261313c57600080fd5b9190910192915050565b8183823760009101908152919050565b82151581526040602082015260006120276040830184613075565b81835281816020850137506000828201602090810191909152601f909101601f19169091010190565b602081526000612027602083018486613171565b6000602082840312156131c057600080fd5b81516126c581612bca565b65ffffffffffff8181168382160190808211156131ea576131ea6130ba565b5092915050565b60008235605e1983360301811261313c57600080fd5b6000808335601e1984360301811261321e57600080fd5b8301803591506001600160401b0382111561323857600080fd5b6020019150600581901b3603821315612d0b57600080fd5b6000808335601e1984360301811261326757600080fd5b8301803591506001600160401b0382111561328157600080fd5b602001915036819003821315612d0b57600080fd5b6000808335601e198436030181126132ad57600080fd5b83016020810192503590506001600160401b038111156132cc57600080fd5b803603821315612d0b57600080fd5b60006101206132fa846132ed85612be2565b6001600160a01b03169052565b602083013560208501526133116040840184613296565b8260408701526133248387018284613171565b925050506133356060840184613296565b8583036060870152613348838284613171565b925050506080830135608085015260a083013560a085015260c083013560c085015261337760e0840184613296565b85830360e087015261338a838284613171565b9250505061010061339d81850185613296565b868403838801526133af848284613171565b979650505050505050565b6040808252810184905260006060600586901b830181019083018783805b8981101561342057868503605f190184528235368c900361011e190181126133fe578283fd5b61340a868d83016132db565b95505060209384019392909201916001016133d8565b5050505082810360208401526133af818587613171565b634e487b7160e01b600052602160045260246000fd5b60006003861061346d57634e487b7160e01b600052602160045260246000fd5b858252608060208301526134846080830186613075565b6040830194909452506060015292915050565b6020815260006126c56020830184613075565b6040815260006134bd60408301856132db565b90508260208301529392505050565b805180516001600160a01b031683526020810151602084015260408101516040840152606081015160608401526080810151608084015260a081015160a084015260c081015160c084015260e081015161353160e08501826001600160a01b03169052565b5061010081810151908401526101209081015190830152602081015161014083015260408101516101608301526060810151610180830152608001516101a090910152565b600061020080835261358a81840187613075565b905061359960208401866134cc565b8281036101e08401526135ac8185613075565b9695505050505050565b60006102008083526135cb8184018789613171565b90506135da60208401866134cc565b8281036101e08401526133af8185613075565b60608152600061360060608301866132db565b60208301949094525060400152919050565b60006020828403121561362457600080fd5b5051919050565b82815260606020820152600d60608201526c10504c8cc81c995d995c9d1959609a1b608082015260a06040820152600061202760a0830184613075565b6000806040838503121561367b57600080fd5b82516001600160401b0381111561369157600080fd5b8301601f810185136136a257600080fd5b80516136b0612d6282612ba3565b8181528660208385010111156136c557600080fd5b6136d6826020830160208601613051565b60209590950151949694955050505050565b82815260606020820152600d60608201526c10504cccc81c995d995c9d1959609a1b608082015260a06040820152600061202760a0830184613075565b6000808585111561373557600080fd5b8386111561374257600080fd5b5050820193919092039150565b6bffffffffffffffffffffffff19813581811691601485101561377c5780818660140360031b1b83161692505b505092915050565b6fffffffffffffffffffffffffffffffff19813581811691601085101561377c5760109490940360031b84901b169092169291505056fea264697066735822122003952128cd2dc35c4e6136d87519522974a4fafdc027812462bf65dc0148e9dd64736f6c63430008180033608060405234801561001057600080fd5b506101f3806100206000396000f3fe608060405234801561001057600080fd5b506004361061002b5760003560e01c8063570e1a3614610030575b600080fd5b61004361003e3660046100ec565b61005f565b6040516001600160a01b03909116815260200160405180910390f35b60008061006f601482858761015e565b61007891610188565b60601c9050600061008c846014818861015e565b8080601f016020809104026020016040519081016040528093929190818152602001838380828437600092018290525084519495509360209350849250905082850182875af190506000519350806100e357600093505b50505092915050565b600080602083850312156100ff57600080fd5b823567ffffffffffffffff8082111561011757600080fd5b818501915085601f83011261012b57600080fd5b81358181111561013a57600080fd5b86602082850101111561014c57600080fd5b60209290920196919550909350505050565b6000808585111561016e57600080fd5b8386111561017b57600080fd5b5050820193919092039150565b6bffffffffffffffffffffffff1981358181169160148510156101b55780818660140360031b1b83161692505b50509291505056fea26469706673582212202b3683c4de47edd8980f2d3cac5ecf54848fecb4f60f3ae190a77d6da02905b564736f6c63430008180033","linkReferences":{}},"methodIdentifiers":{"addStake(uint32)":"0396cb60","balanceOf(address)":"70a08231","delegateAndRevert(address,bytes)":"850aaf62","depositTo(address)":"b760faf9","deposits(address)":"fc7e286d","getDepositInfo(address)":"5287ce12","getNonce(address,uint192)":"35567e1a","getSenderAddress(bytes)":"9b249f69","getUserOpHash((address,uint256,bytes,bytes,bytes32,uint256,bytes32,bytes,bytes))":"22cdde4c","handleAggregatedOps(((address,uint256,bytes,bytes,bytes32,uint256,bytes32,bytes,bytes)[],address,bytes)[],address)":"dbed18e0","handleOps((address,uint256,bytes,bytes,bytes32,uint256,bytes32,bytes,bytes)[],address)":"765e827f","incrementNonce(uint192)":"0bd28e3b","innerHandleOp(bytes,((address,uint256,uint256,uint256,uint256,uint256,uint256,address,uint256,uint256),bytes32,uint256,uint256,uint256),bytes)":"0042dc53","nonceSequenceNumber(address,uint192)":"1b2e01b8","supportsInterface(bytes4)":"01ffc9a7","unlockStake()":"bb9fe6bf","withdrawStake(address)":"c23a5cea","withdrawTo(address,uint256)":"205c2878"},"id":0}