{
  "abi": [
    {
      "type": "function",
      "name": "accounts",
      "inputs": [
        {
          "name": "",
          "type": "uint256",
          "internalType": "uint256"
        }
      ],
      "outputs": [
        {
          "name": "",
          "type": "address",
          "internalType": "address"
        }
      ],
      "stateMutability": "view"
    },
    {
      "type": "function",
      "name": "createAccount",
      "inputs": [
        {
          "name": "owner",
          "type": "address",
          "internalType": "address"
        },
        {
          "name": "userName",
          "type": "string",
          "internalType": "string"
        }
      ],
      "outputs": [
        {
          "name": "",
          "type": "address",
          "internalType": "address"
        }
      ],
      "stateMutability": "nonpayable"
    },
    {
      "type": "function",
      "name": "hasAccount",
      "inputs": [
        {
          "name": "",
          "type": "address",
          "internalType": "address"
        }
      ],
      "outputs": [
        {
          "name": "",
          "type": "bool",
          "internalType": "bool"
        }
      ],
      "stateMutability": "view"
    },
    {
      "type": "function",
      "name": "ownerToAccount",
      "inputs": [
        {
          "name": "",
          "type": "address",
          "internalType": "address"
        }
      ],
      "outputs": [
        {
          "name": "",
          "type": "address",
          "internalType": "address"
        }
      ],
      "stateMutability": "view"
    },
    {
      "type": "event",
      "name": "AccountCreated",
      "inputs": [
        {
          "name": "account",
          "type": "address",
          "indexed": false,
          "internalType": "address"
        },
        {
          "name": "owner",
          "type": "address",
          "indexed": false,
          "internalType": "address"
        }
      ],
      "anonymous": false
    }
  ],
  "bytecode": {
    "object": "0x608060405234801561001057600080fd5b506109bc806100206000396000f3fe608060405234801561001057600080fd5b506004361061004c5760003560e01c80632659f39414610051578063c8e40fbf14610081578063e04cec2e146100b4578063f2a40db8146100dd575b600080fd5b61006461005f3660046102bd565b6100f0565b6040516001600160a01b0390911681526020015b60405180910390f35b6100a461008f36600461037f565b60026020526000908152604090205460ff1681565b6040519015158152602001610078565b6100646100c236600461037f565b6001602052600090815260409020546001600160a01b031681565b6100646100eb3660046103a1565b610254565b6001600160a01b03821660009081526002602052604081205460ff16156101565760405162461bcd60e51b81526020600482015260166024820152754163636f756e7420616c72656164792065786973747360501b604482015260640160405180910390fd5b600083836040516101669061027e565b6101719291906103ba565b604051809103906000f08015801561018d573d6000803e3d6000fd5b50604080516001600160a01b038084168252871660208201529192507fac631f3001b55ea1509cf3d7e74898f85392a61a76e8149181ae1259622dabc8910160405180910390a160008054600181810183557f290decd9548b62a8d60345a988386fc84ba6bc95484008f6362f93160ef3e56390910180546001600160a01b038086166001600160a01b031992831681179093558816845260208381526040808620805490931690931790915560029052909120805460ff19169091179055905092915050565b6000818154811061026457600080fd5b6000918252602090912001546001600160a01b0316905081565b61056d8061041a83390190565b80356001600160a01b03811681146102a257600080fd5b919050565b634e487b7160e01b600052604160045260246000fd5b600080604083850312156102d057600080fd5b6102d98361028b565b9150602083013567ffffffffffffffff808211156102f657600080fd5b818501915085601f83011261030a57600080fd5b81358181111561031c5761031c6102a7565b604051601f8201601f19908116603f01168101908382118183101715610344576103446102a7565b8160405282815288602084870101111561035d57600080fd5b8260208601602083013760006020848301015280955050505050509250929050565b60006020828403121561039157600080fd5b61039a8261028b565b9392505050565b6000602082840312156103b357600080fd5b5035919050565b60018060a01b03831681526000602060406020840152835180604085015260005b818110156103f7578581018301518582016060015282016103db565b506000606082860101526060601f19601f83011685010192505050939250505056fe608060405234801561001057600080fd5b5060405161056d38038061056d83398101604081905261002f91610074565b600180546001600160a01b0319166001600160a01b038416179055600261005682826101e8565b5050506102a7565b634e487b7160e01b600052604160045260246000fd5b6000806040838503121561008757600080fd5b82516001600160a01b038116811461009e57600080fd5b602084810151919350906001600160401b03808211156100bd57600080fd5b818601915086601f8301126100d157600080fd5b8151818111156100e3576100e361005e565b604051601f8201601f19908116603f0116810190838211818310171561010b5761010b61005e565b81604052828152898684870101111561012357600080fd5b600093505b828410156101455784840186015181850187015292850192610128565b60008684830101528096505050505050509250929050565b600181811c9082168061017157607f821691505b60208210810361019157634e487b7160e01b600052602260045260246000fd5b50919050565b601f8211156101e3576000816000526020600020601f850160051c810160208610156101c05750805b601f850160051c820191505b818110156101df578281556001016101cc565b5050505b505050565b81516001600160401b038111156102015761020161005e565b6102158161020f845461015d565b84610197565b602080601f83116001811461024a57600084156102325750858301515b600019600386901b1c1916600185901b1785556101df565b600085815260208120601f198616915b828110156102795788860151825594840194600190910190840161025a565b50858210156102975787850151600019600388901b60f8161c191681555b5050505050600190811b01905550565b6102b7806102b66000396000f3fe608060405234801561001057600080fd5b50600436106100575760003560e01c806306661abd1461005c57806319822f7c1461007857806370019b351461008f5780638da5cb5b146100a4578063d09de08a146100cf575b600080fd5b61006560005481565b6040519081526020015b60405180910390f35b61006561008636600461017d565b60009392505050565b6100976100d9565b60405161006f91906101d1565b6001546100b7906001600160a01b031681565b6040516001600160a01b03909116815260200161006f565b6100d7610167565b005b600280546100e690610220565b80601f016020809104026020016040519081016040528092919081815260200182805461011290610220565b801561015f5780601f106101345761010080835404028352916020019161015f565b820191906000526020600020905b81548152906001019060200180831161014257829003601f168201915b505050505081565b6000805490806101768361025a565b9190505550565b60008060006060848603121561019257600080fd5b833567ffffffffffffffff8111156101a957600080fd5b840161012081870312156101bc57600080fd5b95602085013595506040909401359392505050565b60006020808352835180602085015260005b818110156101ff578581018301518582016040015282016101e3565b506000604082860101526040601f19601f8301168501019250505092915050565b600181811c9082168061023457607f821691505b60208210810361025457634e487b7160e01b600052602260045260246000fd5b50919050565b60006001820161027a57634e487b7160e01b600052601160045260246000fd5b506001019056fea2646970667358221220f6a546fd676867cfdb2125aa4d0b0cf9167da9f66ceab2728dca26eb26f9ea5e64736f6c63430008180033a264697066735822122074060811496fc6f309b12b2134a736cbaf13775e5b095a66a40d31e7935bd05b64736f6c63430008180033",
    "linkReferences": {}
  },
  "methodIdentifiers": {
    "accounts(uint256)": "f2a40db8",
    "createAccount(address,string)": "2659f394",
    "hasAccount(address)": "c8e40fbf",
    "ownerToAccount(address)": "e04cec2e"
  },
  "id": 19
}